:1000000014C1000043C1000041C100003FC1000015
:100010003DC100003BC1000039C1000037C10000F4
:1000200035C1000033C1000031C100002FC1000004
:100030002DC100002BC1000029C1000027C1000014
:1000400025C1000023C1000021C100001FC1000024
:100050001DC100001BC1000019C1000066C40000E2
:1000600015C100003AC300000FC300000FC100001B
:100070000DC100000BC1000009C1000007C1000054
:1000800005C1000003C1000001C10000FFC0000065
:10009000FDC00000FBC00000F9C00000F7C0000078
:1000A000F5C00000F3C00000F1C00000EFC0000088
:1000B000EDC000000AC50000E9C00000E7C0000074
:1000C000E5C00000E3C00000E1C00000BDC50000C5
:1000D000DDC0000029C50000D9C00000D7C0000065
:1000E000D5C00000E402E702D602DA02E0021E03F5
:1000F000EB02EF02F502F902FD02030307030B0313
:100100001E0311031503190300002100240027001A
:100110002A002D0030003300010100000401070116
:100120000A0100002200250028002B002E003100CB
:10013000340002010000050108010B01000020004D
:100140002300260029002C002F00320000010000AF
:10015000030106010901050505050705080808084A
:10016000020202020A0A080804040404010101014F
:10017000010101010303030303030303040707074A
:100180000C0C0C0C0C0C0C0C0202020206060606EF
:10019000060606060B0B0B0B0B0B0B0B01021020BC
:1001A00020080810204010204080020102010804AD
:1001B0000201010204081020408080402010080441
:1001C000020180040201804020100804020108049A
:1001D00002010102040810204080010204081020DE
:1001E000408000000A0B02090C0D0E0807030401F1
:1001F00000000000000000000000000000000000FF
:1002000000000000000000000000000000001211CB
:1002100010000000000000000000000000000000CE
:100220000000000000000000BC0E11241FBECFEF34
:10023000D1E2DEBFCDBF00E00CBF14E0A0E0B2E031
:10024000E0E6FFE100E00BBF02C007900D92A63987
:10025000B107D9F726E0A6E9B4E001C01D92AC329F
:10026000B207E1F711E0C5E1D1E000E006C0219757
:100270000109802FFE010E949A0FC431D10780E04E
:100280000807A9F70E949B090C94AE0FB9CECF9234
:10029000DF92EF92FF920F931F93CF93DF936C0146
:1002A0007A018B01C0E0D0E0CE15DF0589F0D801DE
:1002B0006D918D01D601ED91FC910190F081E02DC1
:1002C000C6011995892B11F47E0102C02196ECCF4D
:1002D000C701DF91CF911F910F91FF90EF90DF90B9
:1002E000CF9008950E94A20F6115710579F0FB016E
:1002F00001900020E9F73197AF01461B570BDC0155
:10030000ED91FC910280F381E02D199480E090E062
:1003100008954F925F926F927F92EF92FF920F93A8
:100320001F93CF93DF93CDB7DEB7A1970FB6F894A5
:10033000DEBF0FBECDBF7C01FA01CB0119A2223076
:1003400008F42AE08E010F5D1F4F422E512C612CC4
:10035000712CBF01A30192010E94780FF901CA011B
:10036000015011096A3014F4605D01C0695CD80164
:100370006C93232B242B252B61F7B801C701B4DF25
:10038000A1960FB6F894DEBF0FBECDBFDF91CF911F
:100390001F910F91FF90EF907F906F905F904F9023
:1003A0000895A2CFFC01918D828D981761F0828D06
:1003B000DF01A80FB11D5D968C91928D9F5F9F7399
:1003C000928F90E008958FEF9FEF0895FC01918D3B
:1003D000828D981731F0828DE80FF11D858D90E0A8
:1003E00008958FEF9FEF0895FC01918D228D892F45
:1003F00090E0805C9F4F821B91098F73992708952D
:1004000088E095E0F1DF21E0892B09F420E0822FDC
:100410000895FC01848DDF01A80FB11DA35ABF4FC1
:100420002C91848D90E001968F739927848FA689F3
:10043000B7892C93A089B1898C9180648C93938D1A
:10044000848D981306C00288F389E02D80818F7D0A
:1004500080830895EF92FF920F931F93CF93DF93C2
:10046000EC0181E0888F9B8D8C8D981305C0E88905
:10047000F989808185FD23C0F62E0B8D10E00F5F7A
:100480001F4F0F731127E02E8C8DE8120BC00FB693
:1004900007FCFACFE889F989808185FFF5CFCE0185
:1004A000B8DFF2CF8B8DFE01E80FF11DE35AFF4F4D
:1004B000F0820B8FEA89FB898081806207C0EE8918
:1004C000FF896083E889F98980818064808381E085
:1004D00090E0DF91CF911F910F91FF90EF900895E1
:1004E000CF93DF93EC01888D8823C1F0EA89FB89E3
:1004F000808185FD05C0A889B9898C9186FD0EC0D3
:100500000FB607FCF5CF808185FFF2CFA889B989A6
:100510008C9185FFEDCFCE017CDFE8CFDF91CF91CD
:10052000089580E090E0892B19F06ADF811125C0E1
:1005300080E090E0892B41F080E090E0892B21F071
:100540000E94000081111CC080E090E0892B41F0E6
:1005500080E090E0892B21F00E940000811113C0FF
:1005600080E090E0892BA1F080E090E0892B81F081
:100570000E94000081110AC008950E940000D8CF97
:100580000E940000E1CF0E940000EACF0C9400001E
:10059000089590E0FC013197E231F10508F04EC07A
:1005A0008827EE58FF4F8F4F0C949A0F8091800050
:1005B0008F7703C0809180008F7D809380000895A5
:1005C00080918000877FF9CF84B58F7702C084B592
:1005D0008F7D84BD08958091B0008F7703C0809196
:1005E000B0008F7D8093B0000895809190008F7748
:1005F00007C0809190008F7D03C080919000877F1D
:100600008093900008958091A0008F7707C080911B
:10061000A0008F7D03C08091A000877F8093A00001
:100620000895809120018F7707C0809120018F7DF0
:1006300003C080912001877F8093200108953FB7F8
:10064000F8948091DC049091DD04A091DE04B091D7
:10065000DF0426B5A89B05C02F3F19F00196A11D08
:10066000B11D3FBFBA2FA92F982F8827820F911D48
:10067000A11DB11DBC01CD0142E0660F771F881F8F
:10068000991F4A95D1F708951F920F920FB60F92B6
:1006900011240BB60F922F933F934F935F936F9359
:1006A0007F938F939F93AF93BF93EF93FF9388E0D4
:1006B00095E0AFDEFF91EF91BF91AF919F918F9148
:1006C0007F916F915F914F913F912F910F900BBE52
:1006D0000F900FBE0F901F9018951F920F920FB69C
:1006E0000F9211240BB60F922F938F939F93EF933A
:1006F000FF93E0911805F09119058081E0911E05A6
:10070000F0911F0582FD12C09081809121058F5FBD
:100710008F7320912205821751F0E0912105F0E0BE
:10072000E85FFA4F958F8093210501C08081FF918A
:10073000EF919F918F912F910F900BBE0F900FBE55
:100740000F901F901895CF93DF93282F30E0F90179
:10075000EE51FE4F8491F901E456FE4FD491F90118
:10076000EA5AFE4FC491CC2389F0811112DFEC2F9D
:10077000F0E0EE0FFF1FE45CFE4FA591B491EC9109
:10078000ED2381E090E021F480E002C080E090E081
:10079000DF91CF910895862FD6CF1F93CF93DF930C
:1007A000282F30E0F901EE51FE4F8491F901E45613
:1007B000FE4FD491F901EA5AFE4FC491CC23C1F007
:1007C000162F8111E6DEEC2FF0E0EE0FFF1FEE5D3D
:1007D000FE4FA591B4918FB7F894111105C09C916B
:1007E000ED2FE095E92302C0EC91ED2BEC938FBF48
:1007F000DF91CF911F910895CF93DF93EC0160E0DB
:100800008E81CBDF61E08E81C8DF60E08E81C5DF45
:100810008BE891E00197F1F7DF91CF910895862F52
:10082000642FBBCFCF93DF9390E0FC01E456FE4FE3
:100830002491FC01EA5AFE4F8491882361F190E0F3
:10084000880F991FFC01E85FFE4FC591D491FC0110
:10085000EE5DFE4FA591B491611109C09FB7F89468
:100860008881209582238883EC912E230BC06230EF
:1008700061F49FB7F8943881822F80958323888311
:10088000EC912E2B2C939FBF06C08FB7F894E88174
:100890002E2B28838FBFDF91CF910895862F642F51
:1008A000C1CF8F929F92AF92BF92CF92DF92EF9281
:1008B000FF926B017C01C3DE4B015C01C114D104CA
:1008C000E104F104E9F0BBDEDC01CB0188199909F0
:1008D000AA09BB09883E9340A105B10578F321E040
:1008E000C21AD108E108F10888EE880E83E0981E4C
:1008F000A11CB11CC114D104E104F10421F7DECF25
:10090000FF90EF90DF90CF90BF90AF909F908F902F
:1009100008952FB7F8946091D8047091D90480910C
:10092000DA049091DB042FBF08951F920F920FB647
:100930000F9211242F933F938F939F93AF93BF9365
:100940008091D8049091D904A091DA04B091DB048D
:100950003091D70423E0230F2D3720F40196A11DF9
:10096000B11D05C026E8230F0296A11DB11D2093DD
:10097000D7048093D8049093D904A093DA04B09359
:10098000DB048091DC049091DD04A091DE04B09141
:10099000DF040196A11DB11D8093DC049093DD045A
:1009A000A093DE04B093DF04BF91AF919F918F912C
:1009B0003F912F910F900FBE0F901F901895CF92DF
:1009C000DF92EF92FF920F931F93CF93DF937C01FF
:1009D0006C0187E0C80ED11CC0E0D0E0062F10E00B
:1009E000B8010C2E02C0759567950A94E2F7617004
:1009F000F60181916F01D1DE2196C430D10581F7D6
:100A0000C701DF91CF911F910F91FF90EF90DF9081
:100A1000CF90F2CECF92DF92EF92FF920F931F937F
:100A2000CF93DF93EC01F62E642F8C81B6DE8D819F
:100A30008F3F11F060E0B1DE8F850F2D10E084FF55
:100A400023C06E0187E0C80ED11CE12CF12CB80147
:100A50000E2C02C0759567950A94E2F76170F60155
:100A600081916F019ADEFFEFEF1AFF0A88E0E81626
:100A7000F10469F7CE01DF91CF911F910F91FF90A3
:100A8000EF90DF90CF90B8CEB80184E07595679570
:100A90008A95E1F7CE0193DF6F2DCE01DF91CF91E3
:100AA0001F910F91FF90EF90DF90CF9088CF41E0A2
:100AB000B1DF81E090E0089540E0ACCF61E0FCDF81
:100AC0008BE39FE10197F1F708951F920F920FB604
:100AD0000F9211248F939F938FE791EC9093A50031
:100AE0008093A4008091060590910705892BA9F0B9
:100AF0008091E2048F5F8093E204873970F08091E7
:100B00000605909107050197039718F481E08093FB
:100B1000050510920705109206059F918F910F9081
:100B20000FBE0F901F9018951F920F920FB60F9245
:100B300011240BB60F928F939F93EF93FF938091A5
:100B4000E1048823D9F18091060590910705823050
:100B5000910589F08330910541F10197B1F510922B
:100B6000E1048EEF8093E0048093D6001092E404B9
:100B700082E090E015C0E091E404F0E0EB51FB4F1F
:100B800080811092E1048093E0048093D6008091EC
:100B9000E4048F5F8093E4048031B8F083E090E058
:100BA000909307058093060510C08091E30410928E
:100BB000E1048093E0048093D60003C081E0809339
:100BC00005051092070510920605FF91EF919F9180
:100BD0008F910F900BBE0F900FBE0F901F90189526
:100BE000DC0190919804809197049817A9F0E09106
:100BF000980480E1E89FF0011124E954FB4F90E153
:100C000001900D929A95E1F78091980490E00196F9
:100C100081709927809398040895FC01AC01405F8E
:100C20005F4F80E03CE89191892798E0282F269536
:100C300080FF03C0822F832701C0822F9150B1F71C
:100C4000E417F50781F708951F920F920FB60F92E0
:100C500011240BB60F922F933F934F935F936F9393
:100C60007F938F939F93AF93BF93CF93EF93FF9314
:100C7000C091D6001092E20480910605909107057C
:100C80008430910581F01CF4892B39F04AC08530FD
:100C90009105A9F0069761F144C0CA3A09F048C02D
:100CA00084E090E020C0CE3F09F042C085E090E0B3
:100CB00090930705809306051092960441C0E09139
:100CC00097048091960420E1E29FF0011124E80F3F
:100CD000F11DE954FB4FC0838F5F809396048031F0
:100CE00078F186E090E0909307058093060528C090
:100CF0008091970420E1829FC001112489549B4F69
:100D00008CDF90919704C81313C0892F90E001964F
:100D10008170992720919804281751F080939704A7
:100D200007C08091E004C81741F081E08093050579
:100D3000109207051092060503C081E08093E1043C
:100D4000FF91EF91CF91BF91AF919F918F917F9143
:100D50006F915F914F913F912F910F900BBE0F902C
:100D60000FBE0F901F90189596E0899FD001112417
:100D7000A354BA4F90967C936E935F9791E09196AF
:100D80009C93919790912906E0912A06F0912B0669
:100D9000992339F0309751F0811108C08091D9051D
:100DA00004C0309719F05C968C91199408950F93B4
:100DB0001F93CF93DF93C82FD62F86E0C89FF001F3
:100DC0001124E354FA4F11A2878D90A1813091052F
:100DD000E1F01CF4892B49F03FC08230910591F17C
:100DE0000397D1F560E070E031C06623A9F161E0BE
:100DF00070E08C2FB9DF8DDD6093150670931606B9
:100E0000809317069093180627C083DD009115067E
:100E1000109116062091170630911806AB01BC01FF
:100E2000401B510B620B730B809127069091280693
:100E3000A0E0B0E084179507A607B70718F462E0B2
:100E400070E004C0D11108C063E070E08C2FDF9126
:100E5000CF911F910F9188CFDF91CF911F910F916B
:100E60000895EF92FF920F931F93CF93DF93EC01BE
:100E7000623018F08F8588608F876B8B1C8A80E4C6
:100E80008D8B80E18E8B80E58F8B61E08C81CADC5D
:100E90008D818F3F11F061E0C5DC61E08E81C2DCA5
:100EA0007E0187E0E80EF11C00E010E08F8584FDF4
:100EB00003C084E090E002C088E090E008171907C2
:100EC00044F461E0F70181917F01ACDC0F5F1F4FBB
:100ED000EDCF8BE39DE00197F1F760E08C815DDC65
:100EE00060E08E815ADC8D818F3F11F060E055DC2F
:100EF0006F8564FD19C063E0CE0161DD0BE416E48B
:100F0000C8010197F1F763E0CE0159DDC8010197EF
:100F1000F1F763E0CE0153DD83E592E00197F1F74D
:100F200062E0CE014CDD13C06062CE01C5DD8BE412
:100F300096E40197F1F76F856062CE01BDDD83E530
:100F400092E00197F1F76F856062CE01B5DD6F85A4
:100F50006062CE01B1DD84E0888B6CE0CE01ACDD57
:100F6000CE01ACDD82E0898B66E0CE01DF91CF91CE
:100F70001F910F91FF90EF909FCD643008F063E0D8
:100F80009091B805691710F06FEF690FE62FF0E048
:100F9000EB55FA4F9489682F690F606885EA95E0F0
:100FA0008BCDCF93DF93482F50E060E070E02AE0D4
:100FB00088E095E0AED9EC0162E974E088E095E064
:100FC00093D98C0F9D1FDF91CF910895CF93DF931D
:100FD000BC0188E095E088D9EC0162E974E088E022
:100FE00095E082D98C0F9D1FDF91CF91089580915C
:100FF000060590910705892B21F081E08093050576
:10100000089580E1E5EFF4E0A5EEB4E001900D92E3
:101010008A95E1F71092E40485EE94E0FEDD80937A
:10102000E30481E090E09093070580930605109219
:1010300005051092E2041092E1048AEA8093E0042C
:101040008093D60008956F927F928F929F92AF9275
:10105000BF92CF92DF92EF92FF920F931F93CF93A5
:10106000DF9381E08093290654DC009119061091EA
:101070001A0620911B0630911C06AB01BC01401BD7
:10108000510B620B730B8091250690912606A0E010
:10109000B0E084179507A607B70708F003C1C0E0C2
:1010A00080912306C81758F4E0911F06F09120069E
:1010B000EC0FF11D62E08081B5DBCF5FF1CF712CC9
:1010C000812C912C5401839480912406781608F089
:1010D0005AC0072D10E0E0912106F0912206E00FA2
:1010E000F11F61E080819EDBE0912106F0912206F4
:1010F000E00FF11F60E0808150DBD501C401072CB7
:1011000004C0880F991FAA1FBB1F0A94D2F76C0155
:101110007C01E094F094612C809123066816F0F431
:10112000C62DD0E0E0911F06F0912006EC0FFD1FC8
:10113000808109DB2496CC0FDD1FC354DA4F892B45
:1011400029F4888199818C299D2904C088819981FD
:101150008E219F21998388836394DECFE0912106BD
:10116000F0912206E00FF11F61E0808116DB809193
:10117000210690912206FC01E00FF11F60E08081C2
:1011800051DB7394A1CFE9EDF5E08FEF9FEF238161
:101190003481232B21F41082928381831582369629
:1011A00026E0E531F20799F710E096E0F92E8091FC
:1011B0002306181708F051C000E0C12FD0E0CC0F73
:1011C000DD1FCB53DA4F20912406021708F043C0ED
:1011D00068817981002E02C0769567950A94E2F7BE
:1011E00061707727129F90011124200F311DE0912B
:1011F0001D06F0911E06E20FF31F4081EDEBF5E0B6
:1012000080E0A58DB68DA217B30711F461701AC0E6
:101210008F5F36968A30A9F7672BD9F0E9EDF5E0B4
:1012200080E090E0508151110FC0F89EF001F99ECE
:10123000F00D1124E354FA4F448F368F258F10A2FE
:10124000178E61E0B4DD05C0019636968A309105AF
:1012500049F70F5FB8CF1F5FAACF80E090E0C0E0F2
:10126000FC01E354FA4F21A12111C1E006968C3311
:101270009105B1F74EDB6093190670931A068093BF
:101280001B0690931C06CC2369F08091DE05882311
:1012900049F08091DC059091DD05019719F480916A
:1012A000D90503C01092290680E0DF91CF911F91EC
:1012B0000F91FF90EF90DF90CF90BF90AF909F90F5
:1012C0008F907F906F900895E091A505F091A6050D
:1012D0000190F081E02D682F85EA95E01994EF9256
:1012E000FF920F931F93CF93DF931F92CDB7DEB77B
:1012F000162F877028E0829FC0011124682F606438
:1013000085EA95E07983D8DBE12E7981F72E870194
:10131000085F1F4FF70161917F0185EA95E0C7DB08
:10132000E016F106B9F70F90DF91CF911F910F9161
:10133000FF90EF900895CF93DF93CDB7DEB764971A
:101340000FB6F894DEBF0FBECDBF789484B582602F
:1013500084BD84B5816084BD85B5826085BD85B559
:10136000816085BD80916E00816080936E001092D7
:101370008100809181008260809381008091810052
:1013800081608093810080918000816080938000E3
:101390008091B10084608093B1008091B000816041
:1013A0008093B00080919100826080939100809141
:1013B0009100816080939100809190008160809382
:1013C00090008091A10082608093A1008091A10093
:1013D00081608093A1008091A00081608093A00033
:1013E000809121018260809321018091210181609F
:1013F0008093210180912001816080932001809160
:101400007A00846080937A0080917A008260809371
:101410007A0080917A00816080937A0080917A00CE
:10142000806880937A001092C10081E090E08ED5B0
:101430008093A90461E086E1F5D961E086E1ADD948
:1014400062E085EA95E00DDDE0911805F09119055F
:1014500082E08083E0911405F09115051082E091FF
:101460001605F09117058FEC808310922005E0910E
:101470001C05F0911D0516E01083E0911A05F0910E
:101480001B05808180618083E0911A05F0911B0526
:10149000808188608083E0911A05F0911B0580812E
:1014A00080688083E0911A05F0911B0580818F7D13
:1014B000808362E772E088E095E00E94D10110929B
:1014C0000705109206051092960410929804109247
:1014D00097041092E4041092E30410920505109210
:1014E000D50087E68093D40088E18093D1001093E3
:1014F000D2008091D6008091D00087FDFACF80EC99
:101500008093D0008091D100806C8093D1001092A4
:10151000A1008FE791EC9093A5008093A400109216
:10152000A00081E08093A1001092A200809372003D
:1015300060E08CE022DD67E772E085EA95E00E94DA
:10154000D10160E08FE019DD4091A90450E060E036
:1015500070E02AE085EA95E00E94890168E272E085
:1015600080E0BDDE60E272E081E0B9DE68E172E059
:1015700082E0B5DE60E172E083E0B1DE68E072E057
:1015800084E0ADDE60E072E085E0A9DE60E080E04E
:10159000F4DC6BE772E085EA95E00E94D10160E03F
:1015A00081E0EBDC62E085EA95E081DA60E082E0F0
:1015B000E4DC63E085EA95E07ADA60E083E0DDDC94
:1015C00063E085EA95E073DA60E086E0D6DC64E00B
:1015D00085EA95E06CDA60E087E0CFDC64E085EADC
:1015E00095E065DA60E088E0C8DC65E085EA95E0D2
:1015F0005EDA60E089E0C1DC64E085EA95E057DA14
:1016000060ED77E080E090E04CD985EA95E056DA2D
:1016100060E080E0B2DC60E085EA95E048DA67E807
:1016200072E085EA95E00E94D10160E083E0A5DCEC
:1016300061E085EA95E03BDA60ED77E080E090E0FC
:1016400030D983E6C82ED12C94E6E92EF12C23E084
:10165000722E0AE210E034E0632E45E6A42EB12C8F
:1016600088248394912C80913602909137028730A0
:10167000910509F4B4C194F58130910509F466C06F
:101680009CF4892B09F075C344D9DC01CB01885443
:10169000944FAF4FBF4F8093B3049093B404A09383
:1016A000B504B093B60452C08230910509F4DBC092
:1016B000069709F05EC385EA95E000DA65E373E01A
:1016C00085EA95E00E94D10161E080E056DC6BE4A0
:1016D00073E085EA95E00E94D1016CC183369105E3
:1016E00009F4D5C1CCF48A9709F043C385EA95E0A3
:1016F000E5D960E080E041DC66E773E085EA95E0EB
:101700000E94D10161E080E038DC6DE873E085EA99
:1017100095E00E94D10199C18436910509F43BC23C
:101720008536910509F025C3F4D81B012C0120E66C
:10173000220E2AEE321E411C511C2092B30430921C
:10174000B4044092B5045092B6049AC28091B10498
:101750009091B204892B91F460E080E00EDC6DE89A
:1017600072E085EA95E00E94D10161E080E005DC4D
:1017700062EA72E085EA95E00E94D1018091B104AD
:101780009091B204019791F460E080E0F6DB64EBA5
:1017900072E085EA95E00E94D10161E080E0EDDB36
:1017A00069EC72E085EA95E00E94D1018091B10474
:1017B0009091B204029791F460E080E0DEDB6EED80
:1017C00072E085EA95E00E94D10161E080E0D5DB1E
:1017D00065EF72E085EA95E00E94D10134DC8093E8
:1017E0003502882391F0813419F486E090E004C03A
:1017F000823479F582E090E090933702809336024C
:101800001092B2041092B104B4C22090B30430908C
:10181000B4044090B5045090B6047BD82616370621
:1018200048065906B0F48091B1049091B204019633
:101830008330910529F09093B2048093B10404C0E1
:101840001092B2041092B104109237021092360234
:1018500090C264E670E080E090E023D89092370276
:101860008092360286C285EA95E028D98FEF809370
:101870003402809333028FEF9FEF90933202809374
:1018800031026BE073E085EA95E00E94D10160E0EF
:101890008DE073DB6091B505862F81608093B5057F
:1018A000696085EA95E008D9CEDB8823E9F3809367
:1018B00034028332C9F38A32B9F39FEB980F943024
:1018C00098F302DD60E08EE058DB6091B505862F6D
:1018D00081608093B505696085EA95E0EDD8B3DB5A
:1018E0008823E9F3809333028332C9F38A32B9F350
:1018F0009FEB980F943098F3E7DC20913402022E8E
:10190000000C330B3093B0042093AF04809133026A
:10191000082E000C990B9093AE048093AD042053D5
:1019200031096AE0629FA001639F500D1124C097A6
:10193000840F951F90933202809331026091B50518
:101940006E7F6093B505686085EA95E0B5D861E083
:1019500080E013DB6EE173E085EA95E00E94D1013F
:1019600072DB8823E9F3833209F06ECF85EA95E0D4
:10197000A5D84091310250913202052E000C660B21
:10198000770B77FF11C08DE2498B5A8B6B8B7C8B69
:101990009BDC49895A896B897C8970956095509543
:1019A00041955F4F6F4F7F4F2AE085EA95E00E9497
:1019B00089010EC048DB8823E9F38093300283322B
:1019C00009F042CF8FEF9FEF909332028093310264
:1019D00087E090E09093370280933602CAC185EA8F
:1019E00095E06CD860E080E0C8DA61E673E085EAF3
:1019F00095E00E94D1011092AC041092AB0480914A
:101A0000AB049091AC048A309105D4F40196909384
:101A1000AC048093AB0460E086E10E94CD0368ECE7
:101A200070E080E090E00E94510461E086E10E9455
:101A3000CD0368EC70E080E090E00E945104DFCFBD
:101A4000D0923702C092360294C18091AB0490913B
:101A5000AC04843191050CF0F7CE01969093AC0460
:101A60008093AB0460E08DE00E94CD0364E670E0FB
:101A700080E090E00E94510461E08DE00E94CD037F
:101A800064E670E080E090E00E945104DECF0E94A6
:101A90008904DC01CB018053984FAF4FBF4F809337
:101AA000B3049093B404A093B504B093B604109219
:101AB000AA0480913102909132022091A9048F3FB3
:101AC0003FEF9307E1F46092F5042093F60410923F
:101AD000F7041092F80486EA93E078DA809106051C
:101AE00090910705892BD1F786EB93E06FDA7FDAC7
:101AF0008091060590910705892BD1F71BC0709244
:101B0000F5042093F6041092F7048093F80486EA13
:101B100093E05CDA8091060590910705892BD1F757
:101B200086EB93E053DA63DA80910605909107051E
:101B3000892BD1F79091050581E0911101C080E0DA
:101B40008093AA0482EC93E041DA8091AA0488236E
:101B500039F083ED93E03ADA1093370200933602BE
:101B600060E273E080E090E00E9451040E948904EA
:101B70002091B3043091B4044091B5045091B6045F
:101B8000621773078407950708F0EFC08091AA04D5
:101B900081118DCFEAC00E948904DC01CB01805AFB
:101BA0009541AF4FBF4F8093B3049093B404A0937B
:101BB000B504B093B6049091980480919704981757
:101BC00009F442C0CE0101960BD86FED73E088E0B6
:101BD00095E00E94D101CE010196F8D98981853026
:101BE00099F59B818091A90498132EC085E0D9D9DD
:101BF0008A81D7D98B81D5D98C81D3D985EA95E0D3
:101C00000E945E0560E080E0B8D969EE73E085EA85
:101C100095E00E94D10161E080E0AFD96FEF73E001
:101C200085EA95E00E94D10161E08BE0A6D94C8164
:101C300050E060E070E02AE085EA95E00E948901CA
:101C4000B0923702A09236020E9489042091B30418
:101C50003091B4044091B5045091B60462177307F3
:101C60008407950708F4A7CF109337020093360234
:101C700080C00E9489046215730584059505A0F74C
:101C80009091980480919704981799F389E994E0CA
:101C90000E94F0056FED73E088E095E00E94D101AD
:101CA00089E994E093D9809199048630C9F060E085
:101CB00080E063D965E174E085EA95E00E94D10196
:101CC00061E080E05AD961E374E085EA95E00E9422
:101CD000D10168EE73E080E090E00E945104C4CF2F
:101CE00090919B048091A9049813E1CF86E059D983
:101CF00080919A0456D980919B0453D980919C0479
:101D000050D960E080E039D96AE474E085EA95E072
:101D10000E94D10161E080E030D96AE674E085EA92
:101D200095E00E94D1018091AB049091AC04843184
:101D300091050CF0BCCF01969093AC048093AB045A
:101D400060E086E10E94CD0368EE73E080E090E001
:101D50000E94510461E086E10E94CD0368EE73E0C9
:101D600080E090E00E945104DECFF0923702E092D2
:101D700036020E94910277CC10920B0510920A0550
:101D800088EE93E0A0E0B0E080930C0590930D0501
:101D9000A0930E05B0930F0584E592E0909309059A
:101DA0008093080585EC90E09093150580931405C9
:101DB00084EC90E0909317058093160580EC90E0FA
:101DC000909319058093180581EC90E090931B0582
:101DD00080931A0582EC90E090931D0580931C057A
:101DE00086EC90E090931F0580931E0510922105CC
:101DF0001092220510922305109224051092BF051F
:101E00001092C3051092C2051092C4058CE692E0B0
:101E10009093BE058093BD0580E090E0FC01E35403
:101E2000FA4F148E10A2178E11A206968C339105CC
:101E3000A9F78CE392E09093200680931F0688E335
:101E400092E0909322068093210684E080932306FB
:101E50008093240680E492E090931E0680931D06F2
:101E60008AE090E0909326068093250684EF91E027
:101E7000909328068093270610922B0610922A062C
:101E80001092190610921A0610921B0610921C0648
:101E9000109229061092A8051092A70584E692E0F8
:101EA0009093A6058093A50586E28093A9058FEF00
:101EB0008093AA0584E28093AB0584E38093AC050C
:101EC00082E38093AD0580E38093AE058EE280933C
:101ED000AF051092B0051092B1051092B2051092A4
:101EE000B3051092B40561E085EA95E00C943107E2
:101EF000A1E21A2EAA1BBB1BFD010DC0AA1FBB1F0E
:101F0000EE1FFF1FA217B307E407F50720F0A21B7F
:101F1000B30BE40BF50B661F771F881F991F1A94EC
:101F200069F760957095809590959B01AC01BD0116
:101F3000CF010895EE0FFF1F881F8BBF0790F6910A
:101F4000E02D199481E090E0F89408C0F999FECF53
:101F500092BD81BDF89A992780B50895F894FFCF76
:101F60000E11010101110E001F08040810110E00CE
:101F70000101010101011F001F01011F01013F00BB
:101F80000F11110F010101001F01010F01010100DB
:101F9000FFFFFFFFFF5A0100201E1C1A211F1D1BFF
:101FA0003132334134353642373839432A302344CD
:101FB000000000002A024701F401D201E60170028C
:101FC0000000000057054701000000004E040F0408
:101FD000CB03696E69740049443D00482020204FBE
:101FE000202020202021004F4D20212100484F5744
:101FF00020746F2053454E44202020202020202094
:10200000200050524553533A2020202020202020E9
:10201000202020004120464F5220444154414D4150
:102020005452495820202020004220464F5220413F
:102030004444524553532020202020202000464F66
:10204000522048454C5020564953495420202020C6
:10205000202020200053454944454E5354524153BB
:10206000534520202020202020200044455354495F
:102070004E4154494F4E3A20232320202000202354
:1020800020544F20434F4E4649524D2020202020BF
:102090002020202000434F4445204F4E20434150F4
:1020A00053554C453F202020202000202320544F12
:1020B00020434F4E4649524D2020202020202020F2
:1020C00000444F204E4F5420494E53455254202037
:1020D0002020202020004552524F522054494D4587
:1020E0004F55542020202020202020200043414C08
:1020F0004C2053494C4B2020202020202020202001
:1021000020202020200057616974696E6720746F59
:102110002073656E640053656E64696E67202E2EB1
:102120002E0046696E69736865642053656E646944
:102130006E670053656E64206661696C6564004774
:102140006F7420646174613A00574F524B494E4797
:1021500020464F5220594F5520202020202000504B
:102160004C454153452057414954202020202020F0
:1021700020202020005448414E4B5320464F5220EF
:102180005553494E47202020202020202020202069
:102190000053454944454E53545241535345202022
:1021A00020202020202020202000494E534552543A
:1021B0002043415053554C452021212120202020EF
:1021C0002020202020202020200020574520574F6D
:1021D000524B20464F5220594F552020202020207E
:1021E00020202020202020202020202020202020EF
:0621F00020000D0A0000B2
:00000001FF
