:1000000014C1000043C1000041C100003FC1000015
:100010003DC100003BC1000039C1000037C10000F4
:1000200035C1000033C1000031C100002FC1000004
:100030002DC100002BC1000029C1000027C1000014
:1000400025C1000023C1000021C100001FC1000024
:100050001DC100001BC1000019C1000096C40000B2
:1000600015C10000A2C3000077C300000FC100004B
:100070000DC100000BC1000009C1000007C1000054
:1000800005C1000003C1000001C10000FFC0000065
:10009000FDC00000FBC00000F9C00000F7C0000078
:1000A000F5C00000F3C00000F1C00000EFC0000088
:1000B000EDC000003AC50000E9C00000E7C0000044
:1000C000E5C00000E3C00000E1C00000D0C50000B2
:1000D000DDC0000059C50000D9C00000D7C0000035
:1000E000D5C0000093029602850289028F02CD02DC
:1000F0009A029E02A402A802AC02B202B602BA029E
:10010000CD02C002C402C802000021002400270062
:100110002A002D0030003300010100000401070116
:100120000A0100002200250028002B002E003100CB
:10013000340002010000050108010B01000020004D
:100140002300260029002C002F00320000010000AF
:10015000030106010901050505050705080808084A
:10016000020202020A0A080804040404010101014F
:10017000010101010303030303030303040707074A
:100180000C0C0C0C0C0C0C0C0202020206060606EF
:10019000060606060B0B0B0B0B0B0B0B01021020BC
:1001A00020080810204010204080020102010804AD
:1001B0000201010204081020408080402010080441
:1001C000020180040201804020100804020108049A
:1001D00002010102040810204080010204081020DE
:1001E000408000000A0B02090C0D0E0807030401F1
:1001F00000000000000000000000000000000000FF
:1002000000000000000000000000000000001211CB
:1002100010000000000000000000000000000000CE
:1002200000000000000000005B0E11241FBECFEF95
:10023000D1E2DEBFCDBF00E00CBF14E0A0E0B2E031
:10024000ECE9FEE100E00BBF02C007900D92AE3773
:10025000B107D9F726E0AEE7B4E001C01D92A431A2
:10026000B207E1F711E0C5E1D1E000E006C0219757
:100270000109802FFE010E94400FC431D10780E0A8
:100280000807A9F70E9482090C944C0FB9CECF92AF
:10029000DF92EF92FF920F931F93CF93DF936C0146
:1002A0007A018B01C0E0D0E0CE15DF0589F0D801DE
:1002B0006D918D01D601ED91FC910190F081E02DC1
:1002C000C6011995892B11F47E0102C02196ECCF4D
:1002D000C701DF91CF911F910F91FF90EF90DF90B9
:1002E000CF900895FC01538D448D252F30E0842F4D
:1002F00090E0821B930B541710F0CF96089501974E
:100300000895FC01918D828D981761F0828DDF0137
:10031000A80FB11D5D968C91928D9F5F9F73928FF8
:1003200090E008958FEF9FEF0895FC01918D828DED
:10033000981731F0828DE80FF11D858D90E00895BA
:100340008FEF9FEF0895FC01918D228D892F90E012
:10035000805C9F4F821B91098F739927089580EFCE
:1003600094E0F1DF21E0892B09F420E0822F089549
:10037000FC01848DDF01A80FB11DA35ABF4F2C9142
:10038000848D90E001968F739927848FA689B78911
:100390002C93A089B1898C9180648C93938D848DEA
:1003A000981306C00288F389E02D80818F7D8083B9
:1003B0000895EF92FF920F931F93CF93DF93EC0179
:1003C00081E0888F9B8D8C8D981305C0E889F98911
:1003D000808185FD23C0F62E0B8D10E00F5F1F4F2F
:1003E0000F731127E02E8C8DE8120BC00FB607FC9F
:1003F000FACFE889F989808185FFF5CFCE01B8DF92
:10040000F2CF8B8DFE01E80FF11DE35AFF4FF08212
:100410000B8FEA89FB898081806207C0EE89FF89A2
:100420006083E889F98980818064808381E090E03D
:10043000DF91CF911F910F91FF90EF900895CF938F
:10044000DF93EC01888D8823C1F0EA89FB898081E4
:1004500085FD05C0A889B9898C9186FD0EC00FB6AF
:1004600007FCF5CF808185FFF2CFA889B9898C91EF
:1004700085FFEDCFCE017CDFE8CFDF91CF910895EE
:1004800080E090E0892B19F06ADF811125C080E0BF
:1004900090E0892B41F080E090E0892B21F00E94D0
:1004A000000081111CC080E090E0892B41F080E0C9
:1004B00090E0892B21F00E940000811113C080E0A0
:1004C00090E0892BA1F080E090E0892B81F00E94E0
:1004D000000081110AC008950E940000D8CF0E9438
:1004E0000000E1CF0E940000EACF0C9400000895C4
:1004F00090E0FC013197E231F10508F04EC0882709
:10050000EE58FF4F8F4F0C94400F809180008F77F3
:1005100003C0809180008F7D80938000089580913A
:100520008000877FF9CF84B58F7702C084B58F7D37
:1005300084BD08958091B0008F7703C08091B00092
:100540008F7D8093B0000895809190008F7707C0D1
:10055000809190008F7D03C080919000877F809371
:10056000900008958091A0008F7707C08091A0002F
:100570008F7D03C08091A000877F8093A0000895A5
:10058000809120018F7707C0809120018F7D03C06B
:1005900080912001877F8093200108953FB7F894D0
:1005A0008091A3049091A404A091A504B091A60405
:1005B00026B5A89B05C02F3F19F00196A11DB11DBE
:1005C0003FBFBA2FA92F982F8827820F911DA11DF9
:1005D000B11DBC01CD0142E0660F771F881F991F36
:1005E0004A95D1F708958F929F92AF92BF92CF9282
:1005F000DF92EF92FF926B017C01D0DF4B015C0137
:10060000C114D104E104F104E9F0C8DFDC01CB013D
:1006100088199909AA09BB09883E9340A105B1052B
:1006200078F321E0C21AD108E108F10888EE880EBB
:1006300083E0981EA11CB11CC114D104E104F10493
:1006400021F7DECFFF90EF90DF90CF90BF90AF907B
:100650009F908F900895089580E090E00895DC01C8
:100660009091A9048091A8049817A9F0E091A90499
:1006700080E1E89FF0011124E258FB4F90E10190E6
:100680000D929A95E1F78091A90490E0019681700E
:1006900099278093A90408950E94480F6115710558
:1006A00079F0FB0101900020E9F73197AF01461B7B
:1006B000570BDC01ED91FC910280F381E02D199440
:1006C00080E090E008954F925F926F927F92EF9258
:1006D000FF920F931F93CF93DF93CDB7DEB7A19710
:1006E0000FB6F894DEBF0FBECDBF7C01FA01CB017F
:1006F00019A2223008F42AE08E010F5D1F4F422E0E
:10070000512C612C712CBF01A30192010E941E0F7C
:10071000F901CA01015011096A3014F4605D01C089
:10072000695CD8016C93232B242B252B61F7B8012E
:10073000C701B4DFA1960FB6F894DEBF0FBECDBFE0
:10074000DF91CF911F910F91FF90EF907F906F906D
:100750005F904F900895A2CF1F920F920FB60F9205
:1007600011240BB60F922F933F934F935F936F9388
:100770007F938F939F93AF93BF93EF93FF9380EFFC
:1007800094E0F6DDFF91EF91BF91AF919F918F9132
:100790007F916F915F914F913F912F910F900BBE81
:1007A0000F900FBE0F901F9018951F920F920FB6CB
:1007B0000F9211240BB60F922F938F939F93EF9369
:1007C000FF93E0910005F09101058081E09106051D
:1007D000F091070582FD12C09081809109058F5F1D
:1007E0008F7320910A05821751F0E0910905F0E01E
:1007F000E051FB4F958F8093090501C08081FF91E7
:10080000EF919F918F912F910F900BBE0F900FBE84
:100810000F901F901895CF93DF93282F30E0F901A8
:10082000EE51FE4F8491F901E456FE4FD491F90147
:10083000EA5AFE4FC491CC2389F0811159DEEC2F86
:10084000F0E0EE0FFF1FE45CFE4FA591B491EC9138
:10085000ED2381E090E021F480E002C080E090E0B0
:10086000DF91CF910895862FD6CF1F93CF93DF933B
:10087000282F30E0F901EE51FE4F8491F901E45642
:10088000FE4FD491F901EA5AFE4FC491CC23C1F036
:10089000162F81112DDEEC2FF0E0EE0FFF1FEE5D25
:1008A000FE4FA591B4918FB7F894111105C09C919A
:1008B000ED2FE095E92302C0EC91ED2BEC938FBF77
:1008C000DF91CF911F910895CF93DF93EC0160E00A
:1008D0008E81CBDF61E08E81C8DF60E08E81C5DF75
:1008E0008BE891E00197F1F7DF91CF910895862F82
:1008F000642FBBCFCF93DF9390E0FC01E456FE4F13
:100900002491FC01EA5AFE4F8491882361F190E022
:10091000880F991FFC01E85FFE4FC591D491FC013F
:10092000EE5DFE4FA591B491611109C09FB7F89497
:100930008881209582238883EC912E230BC062301E
:1009400061F49FB7F8943881822F80958323888340
:10095000EC912E2B2C939FBF06C08FB7F894E881A3
:100960002E2B28838FBFDF91CF910895862F642F80
:10097000C1CF2FB7F89460919F047091A00480912B
:10098000A1049091A2042FBF08951F920F920FB659
:100990000F9211242F933F938F939F93AF93BF9305
:1009A00080919F049091A004A091A104B091A20411
:1009B00030919E0423E0230F2D3720F40196A11DD2
:1009C000B11D05C026E8230F0296A11DB11D20937D
:1009D0009E0480939F049093A004A093A104B093DD
:1009E000A2048091A3049091A404A091A504B091C5
:1009F000A6040196A11DB11D8093A3049093A404A5
:100A0000A093A504B093A604BF91AF919F918F913D
:100A10003F912F910F900FBE0F901F901895CF927E
:100A2000DF92EF92FF920F931F93CF93DF937C019E
:100A30006C0187E0C80ED11CC0E0D0E0062F10E0AA
:100A4000B8010C2E02C0759567950A94E2F76170A3
:100A5000F60181916F0109DF2196C430D10581F73C
:100A6000C701DF91CF911F910F91FF90EF90DF9021
:100A7000CF902ACFCF92DF92EF92FF920F931F93E6
:100A8000CF93DF93EC01F62E642F8C81EEDE8D8107
:100A90008F3F11F060E0E9DE8F850F2D10E084FFBD
:100AA00023C06E0187E0C80ED11CE12CF12CB801E7
:100AB0000E2C02C0759567950A94E2F76170F601F5
:100AC00081916F01D2DEFFEFEF1AFF0A88E0E8168E
:100AD000F10469F7CE01DF91CF911F910F91FF9043
:100AE000EF90DF90CF90F0CEB80184E075956795D8
:100AF0008A95E1F7CE0193DF6F2DCE01DF91CF9183
:100B00001F910F91FF90EF90DF90CF9088CF41E041
:100B1000B1DF81E090E0089540E0ACCF61E0FCDF20
:100B20008BE39FE10197F1F708951F920F920FB6A3
:100B30000F9211248F939F938FE791EC9093A500D0
:100B40008093A4008091EE049091EF04892BA9F08A
:100B50008091CA048F5F8093CA04873970F08091B6
:100B6000EE049091EF040197039718F481E08093CD
:100B7000ED041092EF041092EE049F918F910F906C
:100B80000FBE0F901F9018951F920F920FB60F92E5
:100B900011240BB60F928F939F93EF93FF93809145
:100BA000C9048823D9F18091EE049091EF0482303A
:100BB000910589F08330910541F10197B1F51092CB
:100BC000C9048EEF8093C8048093D6001092CC04A1
:100BD00082E090E015C0E091CC04F0E0E353FB4FDD
:100BE00080811092C9048093C8048093D6008091BC
:100BF000CC048F5F8093CC048031B8F083E090E028
:100C00009093EF048093EE0410C08091CB04109277
:100C1000C9048093C8048093D60003C081E0809308
:100C2000ED041092EF041092EE04FF91EF919F916A
:100C30008F910F900BBE0F900FBE0F901F901895C5
:100C4000FC01AC01405F5F4F80E03CE89191892757
:100C500098E0282F269580FF03C0822F832701C0AC
:100C6000822F9150B1F7E417F50781F708951F928D
:100C70000F920FB60F9211240BB60F922F933F9342
:100C80004F935F936F937F938F939F93AF93BF9394
:100C9000CF93EF93FF93C091D6001092CA04809136
:100CA000EE049091EF048430910581F01CF4892BBF
:100CB00039F04AC085309105A9F0069761F144C02A
:100CC000CA3A09F048C084E090E020C0CE3F09F065
:100CD00042C085E090E09093EF048093EE04109280
:100CE000A70441C0E091A8048091A70420E1E29FFD
:100CF000F0011124E80FF11DE258FB4FC0838F5F14
:100D00008093A704803178F186E090E09093EF041F
:100D10008093EE0428C08091A80420E1829FC00146
:100D2000112482589B4F8CDF9091A804C81313C0E4
:100D3000892F90E00196817099272091A9042817A6
:100D400051F08093A80407C08091C804C81741F0EF
:100D500081E08093ED041092EF041092EE0403C042
:100D600081E08093C904FF91EF91CF91BF91AF9142
:100D70009F918F917F916F915F914F913F912F91B3
:100D80000F900BBE0F900FBE0F901F90189596E01E
:100D9000899FD0011124AB55BA4F90967C936E93E6
:100DA0005F9791E091969C93919790911106E091B5
:100DB0001206F0911306992339F0309751F0811102
:100DC00008C08091C10504C0309719F05C968C91E1
:100DD000199408950F931F93CF93DF93C82FD62FA5
:100DE00086E0C89FF0011124EB55FA4F11A2878DC0
:100DF00090A181309105E1F01CF4892B49F03FC0AE
:100E00008230910591F10397D1F560E070E031C037
:100E10006623A9F161E070E08C2FB9DFAADD609351
:100E2000FD057093FE058093FF059093000627C093
:100E3000A0DD0091FD051091FE052091FF05309188
:100E40000006AB01BC01401B510B620B730B809180
:100E50000F0690911006A0E0B0E084179507A60752
:100E6000B70718F462E070E004C0D11108C063E075
:100E700070E08C2FDF91CF911F910F9188CFDF9180
:100E8000CF911F910F910895EF92FF920F931F93AF
:100E9000CF93DF93EC01623018F08F8588608F87E5
:100EA0006B8B1C8A80E48D8B80E18E8B80E58F8B31
:100EB00061E08C811FDD8D818F3F11F061E01ADDD3
:100EC00061E08E8117DD7E0187E0E80EF11C00E015
:100ED00010E08F8584FD03C084E090E002C088E0CC
:100EE00090E00817190744F461E0F70181917F0150
:100EF00001DD0F5F1F4FEDCF8BE39DE00197F1F711
:100F000060E08C81B2DC60E08E81AFDC8D818F3F50
:100F100011F060E0AADC6F8564FD19C063E0CE01CA
:100F20007EDD0BE416E4C8010197F1F763E0CE0122
:100F300076DDC8010197F1F763E0CE0170DD83E54E
:100F400092E00197F1F762E0CE0169DD13C06062C3
:100F5000CE01E2DD8BE496E40197F1F76F856062E4
:100F6000CE01DADD83E592E00197F1F76F856062EB
:100F7000CE01D2DD6F856062CE01CEDD84E0888B4C
:100F80006CE0CE01C9DDCE01C9DD82E0898B66E06F
:100F9000CE01DF91CF911F910F91FF90EF90BCCDCB
:100FA000643008F063E09091A005691710F06FEFCE
:100FB000690FE62FF0E0E357FA4F9489682F690F25
:100FC00060688DE895E0A8CDCF93DF93482F50E07F
:100FD00060E070E02AE080EF94E075DBEC016AE706
:100FE00074E080EF94E05ADB8C0F9D1FDF91CF916E
:100FF0000895CF93DF93BC0180EF94E04FDBEC01C9
:101000006AE774E080EF94E049DB8C0F9D1FDF916D
:10101000CF9108958091EE049091EF04892B21F0F7
:1010200081E08093ED04089580E1EDEDF4E0ADEC16
:10103000B4E001900D928A95E1F71092CC048DEC0A
:1010400094E0FEDD8093CB0481E090E09093EF0488
:101050008093EE041092ED041092CA041092C90419
:101060008AEA8093C8048093D60008956F927F9295
:101070008F929F92AF92BF92CF92DF92EF92FF92A8
:101080000F931F93CF93DF9381E08093110671DC60
:10109000009101061091020620910306309104068A
:1010A000AB01BC01401B510B620B730B80910D0611
:1010B00090910E06A0E0B0E084179507A607B70749
:1010C00008F003C1C0E080910B06C81758F4E09106
:1010D0000706F0910806EC0FF11D62E080810ADC42
:1010E000CF5FF1CF712C812C912C5401839480918E
:1010F0000C06781608F05AC0072D10E0E09109069A
:10110000F0910A06E00FF11F61E08081F3DBE091CE
:101110000906F0910A06E00FF11F60E08081A5DB6F
:10112000D501C401072C04C0880F991FAA1FBB1F3B
:101130000A94D2F76C017C01E094F094612C8091C8
:101140000B066816F0F4C62DD0E0E0910706F0918A
:101150000806EC0FFD1F80815EDB2496CC0FDD1F9F
:10116000CB55DA4F892B29F4888199818C299D29C7
:1011700004C0888199818E219F21998388836394FB
:10118000DECFE0910906F0910A06E00FF11F61E061
:1011900080816BDB8091090690910A06FC01E00FCB
:1011A000F11F60E08081A6DB7394A1CFE1ECF5E054
:1011B0008FEF9FEF23813481232B21F410829283C0
:1011C00081831582369625E0ED3FF20799F710E00E
:1011D00096E0F92E80910B06181708F051C000E038
:1011E000C12FD0E0CC0FDD1FC355DA4F20910C0684
:1011F000021708F043C068817981002E02C07695FD
:1012000067950A94E2F761707727129F9001112485
:10121000200F311DE0910506F0910606E20FF31F45
:101220004081E5EAF5E080E0A58DB68DA217B30711
:1012300011F461701AC08F5F36968A30A9F7672B58
:10124000D9F0E1ECF5E080E090E0508151110FC061
:10125000F89EF001F99EF00D1124EB55FA4F448FE2
:10126000368F258F10A2178E61E0B4DD05C0019680
:1012700036968A30910549F70F5FB8CF1F5FAACF26
:1012800080E090E0C0E0FC01EB55FA4F21A1211174
:10129000C1E006968C339105B1F76BDB60930106D4
:1012A000709302068093030690930406CC2369F0A2
:1012B0008091C605882349F08091C4059091C505A9
:1012C000019719F48091C10503C01092110680E0C6
:1012D000DF91CF911F910F91FF90EF90DF90CF9012
:1012E000BF90AF909F908F907F906F900895E09106
:1012F0008D05F0918E050190F081E02D682F8DE82D
:1013000095E01994CF93DF93CDB7DEB764970FB60E
:10131000F894DEBF0FBECDBF789484B5826084BDE3
:1013200084B5816084BD85B5826085BD85B58160E9
:1013300085BD80916E00816080936E001092810067
:101340008091810082608093810080918100816022
:1013500080938100809180008160809380008091E3
:10136000B10084608093B1008091B000816080936F
:10137000B0008091910082608093910080919100F3
:1013800081608093910080919000816080939000B3
:101390008091A10082608093A1008091A100816072
:1013A0008093A1008091A00081608093A000809133
:1013B00021018260809321018091210181608093CD
:1013C00021018091200181608093200180917A0029
:1013D000846080937A0080917A00826080937A00A2
:1013E00080917A00816080937A0080917A00806891
:1013F00080937A001092C10081E090E017D580932D
:10140000BA0461E086E176DA61E086E12EDA62E034
:101410008DE895E039DDE0910005F091010582E06D
:101420008083E091FC04F091FD041082E091FE04C1
:10143000F091FF048FEC808310920805E091040581
:10144000F091050516E01083E0910205F091030587
:10145000808180618083E0910205F09103058081A5
:1014600088608083E0910205F091030580818068A7
:101470008083E0910205F091030580818F7D808358
:1014800068E472E080EF94E066D91092EF04109265
:10149000EE041092A7041092A9041092A8041092CE
:1014A000CC041092CB041092ED041092D50087E684
:1014B0008093D40088E18093D1001093D200809172
:1014C000D6008091D00087FDFACF80EC8093D000C9
:1014D0008091D100806C8093D1001092A1008FE7A1
:1014E00091EC9093A5008093A4001092A00081E05D
:1014F0008093A1001092A2008093720060E08CE0C3
:101500004FDD6DE472E08DE895E025D960E08FE075
:1015100047DD4091BA0450E060E070E02AE08DE8D9
:1015200095E0D1D860E080E03BDD61E572E08DE8D8
:1015300095E011D960ED77E080E090E054D88DE837
:1015400095E0ECDA60E080E02BDD68E572E08DE8A4
:1015500095E001D960ED77E080E090E044D887E045
:10156000C82ED12CAA24AA94BA2C24E6822E912C1F
:1015700033E6E32EF12C0AE210E046E0642E712CF3
:1015800080910602909107028630910509F455C1B9
:101590009CF48230910509F4C9C034F40097A9F194
:1015A000019709F44AC07FC38330910509F4D9C07B
:1015B000049709F40DC177C38336910509F4B7C1C7
:1015C000DCF48730910509F45AC18A9709F06BC39E
:1015D0008DE895E0A3DA60E080E0E2DC6AE573E0A4
:1015E0008DE895E0B8D861E080E0DADC61E773E08F
:1015F0008DE895E0B0D879C18436910509F43DC2F3
:101600008536910509F4C3C24EC3B3D9DC01CB01C1
:101610008059984EAF4FBF4F8093C4049093C50438
:10162000A093C604B093C7048FEF80930502809304
:101630000402B0920302A09202028091C20490912F
:10164000C304892B81F460E080E0AADC6FE572E0DE
:101650008DE895E080D861E080E0A2DC64E772E08C
:101660008DE895E078D88091C2049091C3040197E9
:1016700081F460E080E094DC66E872E08DE895E05B
:101680006AD861E080E08CDC6BE972E08DE895E07F
:1016900062D88091C2049091C304029781F460E003
:1016A00080E07EDC60EB72E08DE895E054D861E08C
:1016B00080E076DC67EC72E08DE895E04CD8D6DC13
:1016C00080930102813429F470920702609206022D
:1016D00008C0823451F482E090E090930702809336
:1016E00006021092C3041092C2042090C4043090E9
:1016F000C5044090C6045090C7043BD9261637064F
:101700004806590608F0CFC28091C2049091C304E4
:1017100001968330910529F09093C3048093C2040D
:1017200063C21092C3041092C2045EC28DE895E0B9
:10173000F5D96CED72E08DE895E00DD860E08DE0B4
:101740002FDC94DC582E8093050260E08DE028DCCD
:10175000852DCDDD83E090E0909307028093060213
:10176000A2C26FEE72E08DE895E00E94AB037EDCD2
:10177000582E8093040260E08EE012DC852DB7DDE8
:1017800084E090E090930702809306022091050286
:10179000022E000C330B3093C1042093C0048091BF
:1017A0000402082E000C990B9093BF048093BE0492
:1017B000205331096AE0629FA001639F500D1124FC
:1017C000C097840F951F90930302809302026BC20F
:1017D00061E080E0E5DB62E073E08DE895E00E9487
:1017E000AB0344DC833209F05EC28DE895E096D904
:1017F0004091020250910302052E000C660B770BFC
:1018000077FF11C08DE2498B5A8B6B8B7C8B6FDD20
:1018100049895A896B897C89709560955095419565
:101820005F4F6F4F7F4F2AE08DE895E00E94630382
:10183000D0920702C092060236C28DE895E06ED9BA
:1018400069E173E08DE895E00E94AB0361E080E020
:10185000A7DB6FE273E08DE895E00E94AB0306DC46
:10186000833209F020C28DE895E058D9D092070262
:10187000C0920602B0920302A092020214C28DE846
:1018800095E04CD960E080E08BDB65E473E08DE8A7
:1018900095E00E94AB031092BD041092BC048091AD
:1018A000BC049091BD048A309105D4F401969093C4
:1018B000BD048093BC0460E086E10E94350468ECBE
:1018C00070E080E090E00E94F30261E086E10E9417
:1018D000350468EC70E080E090E00E94F302DFCF16
:1018E000F0920702E0920602DEC18091BC04909162
:1018F000BD04843191050CF077C101969093BD042D
:101900008093BC0460E08DE00E94350464E670E0E2
:1019100080E090E00E94F30261E08DE00E943504D7
:1019200064E670E080E090E00E94F302DECF21D810
:10193000DC01CB018053984FAF4FBF4F8093C4045D
:101940009093C504A093C604B093C7041092BB043F
:1019500080910202909103022091BA048F3F3FEFE1
:10196000930781F584E08093DD042093DE041092D8
:10197000DF041092E0048AE893E03BDB8091EE0400
:101980009091EF04892BD1F78AE993E032DB42DBB7
:101990008091EE049091EF04892BD1F79091ED04A2
:1019A00081E0911101C080E08093BB0486EA93E05E
:1019B00020DB8091BB04882309F475C187EB93E099
:1019C00018DB6DC133E03093DD042093DE04109208
:1019D000DF048093E0048AE893E00BDB8091EE045F
:1019E0009091EF04892BD1F78AE993E002DB12DBB7
:1019F0008091EE049091EF04892BD1F79091ED0442
:101A000081E0911101C080E08093BB0486EA93E0FD
:101A1000F0DA8091BB04882339F087EB93E0E9DAB0
:101A200010930702009306020E94B9042090C40498
:101A30003090C5044090C6045090C704261637065F
:101A40004806590620F48091BB0481112FC10E94E1
:101A5000B9042091BB04621573058405950530F423
:101A6000222331F0F0920702E092060221111BC1FD
:101A7000909207028092060216C10E94B904DC010E
:101A8000CB018057904AAE4FBF4F8093C4049093D0
:101A9000C504A093C604B093C70481E080930002FC
:101AA00068EC70E080E090E00E94F3029091A9045D
:101AB0008091A804981709F455C0CE0101960E94A0
:101AC0002F0363EC73E080EF94E00E94AB03CE0140
:101AD00001968FDA8981853009F044C09B8180911D
:101AE000BA0498133FC01092000285E06DDA8A8133
:101AF0006BDA8B8169DA8C8167DA60E080E050DA3A
:101B00006DEC73E08DE895E00E94AB0361E080E04E
:101B100047DA65EE73E08DE895E00E94AB0361E083
:101B20008BE03EDA4C8150E060E070E02AE08DE826
:101B300095E00E94630385E690E09093070280930E
:101B400006020E94B904DC01CB018057904AAE4FD7
:101B5000BF4F8093C4049093C504A093C604B09370
:101B6000C704A1C00E94B9042091C4043091C504E7
:101B70004091C6045091C704621773078407950704
:101B800008F091C080910002811189C08CC081E071
:101B9000809300029091A9048091A804981709F4F9
:101BA0006FC08AEA94E00E942F0363EC73E080EF39
:101BB00094E00E94AB038AEA94E01BDA8091AA04C5
:101BC0008630B9F060E080E0EBD96DEF73E08DE82E
:101BD00095E00E94AB0361E080E0E2D969E174E046
:101BE0008DE895E00E94AB03109207021092060266
:101BF0005AC09091AC048091BA049813E3CF10922C
:101C0000000286E0E1D98091AB04DED98091AC047A
:101C1000DBD98091AD04D8D960E080E0C1D962E31E
:101C200074E08DE895E00E94AB0361E080E0B8D9F4
:101C300062E574E08DE895E00E94AB038091BC04FE
:101C40009091BD04843191050CF0BCCF0196909326
:101C5000BD048093BC0460E086E10E94350468EE18
:101C600073E080E090E00E94F30261E086E10E9470
:101C7000350468EE73E080E090E00E94F302DECF6E
:101C80000E94B9042091C4043091C5044091C60457
:101C90005091C704621773078407950720F41093C7
:101CA0000702009306020E9440026ACC10930702CA
:101CB00000930602CCCE1092F3041092F20488EE48
:101CC00093E0A0E0B0E08093F4049093F504A09337
:101CD000F604B093F70484E292E09093F1048093C9
:101CE000F00485EC90E09093FD048093FC0484EC78
:101CF00090E09093FF048093FE0480EC90E090933A
:101D000001058093000581EC90E09093030580939A
:101D1000020582EC90E0909305058093040586EC23
:101D200090E09093070580930605109209051092A4
:101D30000A0510920B0510920C051092A70510923F
:101D4000AB051092AA051092AC0582E492E0909344
:101D5000A6058093A50580E090E0FC01EB55FA4FC5
:101D6000148E10A2178E11A206968C339105A9F736
:101D70008CE092E0909308068093070688E092E05A
:101D800090930A068093090684E080930B06809363
:101D90000C0680E192E090930606809305068AE0A7
:101DA00090E090930E0680930D0684EF91E090935F
:101DB000100680930F0610921306109212061092CE
:101DC0000106109202061092030610920406109269
:101DD00011061092900510928F0586E392E0909381
:101DE0008E0580938D0586E2809391058FEF809319
:101DF000920584E28093930584E38093940582E3C3
:101E00008093950580E3809396058EE280939705F5
:101E1000109298051092990510929A0510929B05C0
:101E200010929C0561E08DE895E02EC8F999FECFEF
:101E300092BD81BDF89A992780B50895A1E21A2E26
:101E4000AA1BBB1BFD010DC0AA1FBB1FEE1FFF1F5E
:101E5000A217B307E407F50720F0A21BB30BE40BAE
:101E6000F50B661F771F881F991F1A9469F76095F5
:101E70007095809590959B01AC01BD01CF010895AF
:101E8000EE0FFF1F881F8BBF0790F691E02D19946E
:0C1E900081E090E0F89400C0F894FFCFCF
:101E9C00015AFFFFFFFF0100201E1C1A211F1D1BF2
:101EAC003132334134353642373839432A302344C2
:101EBC0000000000D901470172011F02A30181013A
:101ECC00950100000000870547012C032B0300003F
:101EDC000000B60477043304696E69740049443D0C
:101EEC000048454C4C4F2100464F4D502121004895
:101EFC004F5720746F2053454E4420202020202023
:101F0C002020200050524553533A202020202020DE
:101F1C002020202020004120464F52204441544193
:101F2C004D415452495820202020004220464F5207
:101F3C00204144445245535320202020202020008F
:101F4C00464F522048454C50205649534954202066
:101F5C002020202020200073696C6B726F61642E2E
:101F6C00782D72612E646520202020004445535446
:101F7C00494E4154494F4E3A2023232020200044FF
:101F8C00455354494E4154494F4E3A20202320206A
:101F9C002000202320544F20434F4E4649524D20C1
:101FAC00202020202020202000434F4445204F4E4D
:101FBC002043415053554C453F20202020200020E9
:101FCC002320544F20434F4E4649524D2020202071
:101FDC002020202000444F204E4F5420494E534582
:101FEC00525420202020202020004552524F5220B5
:101FFC0054494D454F55542020202020202020208E
:10200C000043414C4C2053494C4B20202020202095
:10201C002020202020202020200057616974696E28
:10202C006720746F2073656E640053656E64696E0F
:10203C0067202E2E2E0046696E69736865642053E6
:10204C00656E64696E670053656E64206661696CC9
:10205C00656400476F7420646174613A00574F5295
:10206C004B494E4720464F5220594F552020202097
:10207C002020202000504C454153452057414954C5
:10208C0020202020202020202020202000544841E7
:10209C004E4B5320464F52205553494E472020203B
:1020AC0020202020202020200053454944454E5319
:1020BC005452415353452020202020202020202002
:1020CC002000494E534552542043415053554C45E2
:1020DC0020212121202020202020202020202020F1
:1020EC00200020574520574F524B20464F52205925
:1020FC004F55202020202020202020202020202070
:0E210C00202020202020202020000D0A00008E
:00000001FF
