:1000000014C1000043C1000041C100003FC1000015
:100010003DC100003BC1000039C1000037C10000F4
:1000200035C1000033C1000031C100002FC1000004
:100030002DC100002BC1000029C1000027C1000014
:1000400025C1000023C1000021C100001FC1000024
:100050001DC100001BC1000019C1000096C40000B2
:1000600015C10000A2C3000077C300000FC100004B
:100070000DC100000BC1000009C1000007C1000054
:1000800005C1000003C1000001C10000FFC0000065
:10009000FDC00000FBC00000F9C00000F7C0000078
:1000A000F5C00000F3C00000F1C00000EFC0000088
:1000B000EDC000003AC50000E9C00000E7C0000044
:1000C000E5C00000E3C00000E1C00000D0C50000B2
:1000D000DDC0000059C50000D9C00000D7C0000035
:1000E000D5C0000093029602850289028F02CD02DC
:1000F0009A029E02A402A802AC02B202B602BA029E
:10010000CD02C002C402C802000021002400270062
:100110002A002D0030003300010100000401070116
:100120000A0100002200250028002B002E003100CB
:10013000340002010000050108010B01000020004D
:100140002300260029002C002F00320000010000AF
:10015000030106010901050505050705080808084A
:10016000020202020A0A080804040404010101014F
:10017000010101010303030303030303040707074A
:100180000C0C0C0C0C0C0C0C0202020206060606EF
:10019000060606060B0B0B0B0B0B0B0B01021020BC
:1001A00020080810204010204080020102010804AD
:1001B0000201010204081020408080402010080441
:1001C000020180040201804020100804020108049A
:1001D00002010102040810204080010204081020DE
:1001E000408000000A0B02090C0D0E0807030401F1
:1001F00000000000000000000000000000000000FF
:1002000000000000000000000000000000001211CB
:1002100010000000000000000000000000000000CE
:1002200000000000000000005B0E11241FBECFEF95
:10023000D1E2DEBFCDBF00E00CBF14E0A0E0B2E031
:10024000ECE9FEE100E00BBF02C007900D92AE3773
:10025000B107D9F726E0AEE7B4E001C01D92A431A2
:10026000B207E1F711E0C5E1D1E000E006C0219757
:100270000109802FFE010E94400FC431D10780E0A8
:100280000807A9F70E9482090C944C0FB9CECF92AF
:10029000DF92EF92FF920F931F93CF93DF936C0146
:1002A0007A018B01C0E0D0E0CE15DF0589F0D801DE
:1002B0006D918D01D601ED91FC910190F081E02DC1
:1002C000C6011995892B11F47E0102C02196ECCF4D
:1002D000C701DF91CF911F910F91FF90EF90DF90B9
:1002E000CF900895FC01538D448D252F30E0842F4D
:1002F00090E0821B930B541710F0CF96089501974E
:100300000895FC01918D828D981761F0828DDF0137
:10031000A80FB11D5D968C91928D9F5F9F73928FF8
:1003200090E008958FEF9FEF0895FC01918D828DED
:10033000981731F0828DE80FF11D858D90E00895BA
:100340008FEF9FEF0895FC01918D228D892F90E012
:10035000805C9F4F821B91098F739927089580EFCE
:1003600094E0F1DF21E0892B09F420E0822F089549
:10037000FC01848DDF01A80FB11DA35ABF4F2C9142
:10038000848D90E001968F739927848FA689B78911
:100390002C93A089B1898C9180648C93938D848DEA
:1003A000981306C00288F389E02D80818F7D8083B9
:1003B0000895EF92FF920F931F93CF93DF93EC0179
:1003C00081E0888F9B8D8C8D981305C0E889F98911
:1003D000808185FD23C0F62E0B8D10E00F5F1F4F2F
:1003E0000F731127E02E8C8DE8120BC00FB607FC9F
:1003F000FACFE889F989808185FFF5CFCE01B8DF92
:10040000F2CF8B8DFE01E80FF11DE35AFF4FF08212
:100410000B8FEA89FB898081806207C0EE89FF89A2
:100420006083E889F98980818064808381E090E03D
:10043000DF91CF911F910F91FF90EF900895CF938F
:10044000DF93EC01888D8823C1F0EA89FB898081E4
:1004500085FD05C0A889B9898C9186FD0EC00FB6AF
:1004600007FCF5CF808185FFF2CFA889B9898C91EF
:1004700085FFEDCFCE017CDFE8CFDF91CF910895EE
:1004800080E090E0892B19F06ADF811125C080E0BF
:1004900090E0892B41F080E090E0892B21F00E94D0
:1004A000000081111CC080E090E0892B41F080E0C9
:1004B00090E0892B21F00E940000811113C080E0A0
:1004C00090E0892BA1F080E090E0892B81F00E94E0
:1004D000000081110AC008950E940000D8CF0E9438
:1004E0000000E1CF0E940000EACF0C9400000895C4
:1004F00090E0FC013197E231F10508F04EC0882709
:10050000EE58FF4F8F4F0C94400F809180008F77F3
:1005100003C0809180008F7D80938000089580913A
:100520008000877FF9CF84B58F7702C084B58F7D37
:1005300084BD08958091B0008F7703C08091B00092
:100540008F7D8093B0000895809190008F7707C0D1
:10055000809190008F7D03C080919000877F809371
:10056000900008958091A0008F7707C08091A0002F
:100570008F7D03C08091A000877F8093A0000895A5
:10058000809120018F7707C0809120018F7D03C06B
:1005900080912001877F8093200108953FB7F894D0
:1005A0008091A3049091A404A091A504B091A60405
:1005B00026B5A89B05C02F3F19F00196A11DB11DBE
:1005C0003FBFBA2FA92F982F8827820F911DA11DF9
:1005D000B11DBC01CD0142E0660F771F881F991F36
:1005E0004A95D1F708958F929F92AF92BF92CF9282
:1005F000DF92EF92FF926B017C01D0DF4B015C0137
:10060000C114D104E104F104E9F0C8DFDC01CB013D
:1006100088199909AA09BB09883E9340A105B1052B
:1006200078F321E0C21AD108E108F10888EE880EBB
:1006300083E0981EA11CB11CC114D104E104F10493
:1006400021F7DECFFF90EF90DF90CF90BF90AF907B
:100650009F908F900895089580E090E00895DC01C8
:100660009091A9048091A8049817A9F0E091A90499
:1006700080E1E89FF0011124E258FB4F90E10190E6
:100680000D929A95E1F78091A90490E0019681700E
:1006900099278093A90408950E94480F6115710558
:1006A00079F0FB0101900020E9F73197AF01461B7B
:1006B000570BDC01ED91FC910280F381E02D199440
:1006C00080E090E008954F925F926F927F92EF9258
:1006D000FF920F931F93CF93DF93CDB7DEB7A19710
:1006E0000FB6F894DEBF0FBECDBF7C01FA01CB017F
:1006F00019A2223008F42AE08E010F5D1F4F422E0E
:10070000512C612C712CBF01A30192010E941E0F7C
:10071000F901CA01015011096A3014F4605D01C089
:10072000695CD8016C93232B242B252B61F7B8012E
:10073000C701B4DFA1960FB6F894DEBF0FBECDBFE0
:10074000DF91CF911F910F91FF90EF907F906F906D
:100750005F904F900895A2CF1F920F920FB60F9205
:1007600011240BB60F922F933F934F935F936F9388
:100770007F938F939F93AF93BF93EF93FF9380EFFC
:1007800094E0F6DDFF91EF91BF91AF919F918F9132
:100790007F916F915F914F913F912F910F900BBE81
:1007A0000F900FBE0F901F9018951F920F920FB6CB
:1007B0000F9211240BB60F922F938F939F93EF9369
:1007C000FF93E0910005F09101058081E09106051D
:1007D000F091070582FD12C09081809109058F5F1D
:1007E0008F7320910A05821751F0E0910905F0E01E
:1007F000E051FB4F958F8093090501C08081FF91E7
:10080000EF919F918F912F910F900BBE0F900FBE84
:100810000F901F901895CF93DF93282F30E0F901A8
:10082000EE51FE4F8491F901E456FE4FD491F90147
:10083000EA5AFE4FC491CC2389F0811159DEEC2F86
:10084000F0E0EE0FFF1FE45CFE4FA591B491EC9138
:10085000ED2381E090E021F480E002C080E090E0B0
:10086000DF91CF910895862FD6CF1F93CF93DF933B
:10087000282F30E0F901EE51FE4F8491F901E45642
:10088000FE4FD491F901EA5AFE4FC491CC23C1F036
:10089000162F81112DDEEC2FF0E0EE0FFF1FEE5D25
:1008A000FE4FA591B4918FB7F894111105C09C919A
:1008B000ED2FE095E92302C0EC91ED2BEC938FBF77
:1008C000DF91CF911F910895CF93DF93EC0160E00A
:1008D0008E81CBDF61E08E81C8DF60E08E81C5DF75
:1008E0008BE891E00197F1F7DF91CF910895862F82
:1008F000642FBBCFCF93DF9390E0FC01E456FE4F13
:100900002491FC01EA5AFE4F8491882361F190E022
:10091000880F991FFC01E85FFE4FC591D491FC013F
:10092000EE5DFE4FA591B491611109C09FB7F89497
:100930008881209582238883EC912E230BC062301E
:1009400061F49FB7F8943881822F80958323888340
:10095000EC912E2B2C939FBF06C08FB7F894E881A3
:100960002E2B28838FBFDF91CF910895862F642F80
:10097000C1CF2FB7F89460919F047091A00480912B
:10098000A1049091A2042FBF08951F920F920FB659
:100990000F9211242F933F938F939F93AF93BF9305
:1009A00080919F049091A004A091A104B091A20411
:1009B00030919E0423E0230F2D3720F40196A11DD2
:1009C000B11D05C026E8230F0296A11DB11D20937D
:1009D0009E0480939F049093A004A093A104B093DD
:1009E000A2048091A3049091A404A091A504B091C5
:1009F000A6040196A11DB11D8093A3049093A404A5
:100A0000A093A504B093A604BF91AF919F918F913D
:100A10003F912F910F900FBE0F901F901895CF927E
:100A2000DF92EF92FF920F931F93CF93DF937C019E
:100A30006C0187E0C80ED11CC0E0D0E0062F10E0AA
:100A4000B8010C2E02C0759567950A94E2F76170A3
:100A5000F60181916F0109DF2196C430D10581F73C
:100A6000C701DF91CF911F910F91FF90EF90DF9021
:100A7000CF902ACFCF92DF92EF92FF920F931F93E6
:100A8000CF93DF93EC01F62E642F8C81EEDE8D8107
:100A90008F3F11F060E0E9DE8F850F2D10E084FFBD
:100AA00023C06E0187E0C80ED11CE12CF12CB801E7
:100AB0000E2C02C0759567950A94E2F76170F601F5
:100AC00081916F01D2DEFFEFEF1AFF0A88E0E8168E
:100AD000F10469F7CE01DF91CF911F910F91FF9043
:100AE000EF90DF90CF90F0CEB80184E075956795D8
:100AF0008A95E1F7CE0193DF6F2DCE01DF91CF9183
:100B00001F910F91FF90EF90DF90CF9088CF41E041
:100B1000B1DF81E090E0089540E0ACCF61E0FCDF20
:100B20008BE39FE10197F1F708951F920F920FB6A3
:100B30000F9211248F939F938FE791EC9093A500D0
:100B40008093A4008091EE049091EF04892BA9F08A
:100B50008091CA048F5F8093CA04873970F08091B6
:100B6000EE049091EF040197039718F481E08093CD
:100B7000ED041092EF041092EE049F918F910F906C
:100B80000FBE0F901F9018951F920F920FB60F92E5
:100B900011240BB60F928F939F93EF93FF93809145
:100BA000C9048823D9F18091EE049091EF0482303A
:100BB000910589F08330910541F10197B1F51092CB
:100BC000C9048EEF8093C8048093D6001092CC04A1
:100BD00082E090E015C0E091CC04F0E0E353FB4FDD
:100BE00080811092C9048093C8048093D6008091BC
:100BF000CC048F5F8093CC048031B8F083E090E028
:100C00009093EF048093EE0410C08091CB04109277
:100C1000C9048093C8048093D60003C081E0809308
:100C2000ED041092EF041092EE04FF91EF919F916A
:100C30008F910F900BBE0F900FBE0F901F901895C5
:100C4000FC01AC01405F5F4F80E03CE89191892757
:100C500098E0282F269580FF03C0822F832701C0AC
:100C6000822F9150B1F7E417F50781F708951F928D
:100C70000F920FB60F9211240BB60F922F933F9342
:100C80004F935F936F937F938F939F93AF93BF9394
:100C9000CF93EF93FF93C091D6001092CA04809136
:100CA000EE049091EF048430910581F01CF4892BBF
:100CB00039F04AC085309105A9F0069761F144C02A
:100CC000CA3A09F048C084E090E020C0CE3F09F065
:100CD00042C085E090E09093EF048093EE04109280
:100CE000A70441C0E091A8048091A70420E1E29FFD
:100CF000F0011124E80FF11DE258FB4FC0838F5F14
:100D00008093A704803178F186E090E09093EF041F
:100D10008093EE0428C08091A80420E1829FC00146
:100D2000112482589B4F8CDF9091A804C81313C0E4
:100D3000892F90E00196817099272091A9042817A6
:100D400051F08093A80407C08091C804C81741F0EF
:100D500081E08093ED041092EF041092EE0403C042
:100D600081E08093C904FF91EF91CF91BF91AF9142
:100D70009F918F917F916F915F914F913F912F91B3
:100D80000F900BBE0F900FBE0F901F90189596E01E
:100D9000899FD0011124AB55BA4F90967C936E93E6
:100DA0005F9791E091969C93919790911106E091B5
:100DB0001206F0911306992339F0309751F0811102
:100DC00008C08091C10504C0309719F05C968C91E1
:100DD000199408950F931F93CF93DF93C82FD62FA5
:100DE00086E0C89FF0011124EB55FA4F11A2878DC0
:100DF00090A181309105E1F01CF4892B49F03FC0AE
:100E00008230910591F10397D1F560E070E031C037
:100E10006623A9F161E070E08C2FB9DFAADD609351
:100E2000FD057093FE058093FF059093000627C093
:100E3000A0DD0091FD051091FE052091FF05309188
:100E40000006AB01BC01401B510B620B730B809180
:100E50000F0690911006A0E0B0E084179507A60752
:100E6000B70718F462E070E004C0D11108C063E075
:100E700070E08C2FDF91CF911F910F9188CFDF9180
:100E8000CF911F910F910895EF92FF920F931F93AF
:100E9000CF93DF93EC01623018F08F8588608F87E5
:100EA0006B8B1C8A80E48D8B80E18E8B80E58F8B31
:100EB00061E08C811FDD8D818F3F11F061E01ADDD3
:100EC00061E08E8117DD7E0187E0E80EF11C00E015
:100ED00010E08F8584FD03C084E090E002C088E0CC
:100EE00090E00817190744F461E0F70181917F0150
:100EF00001DD0F5F1F4FEDCF8BE39DE00197F1F711
:100F000060E08C81B2DC60E08E81AFDC8D818F3F50
:100F100011F060E0AADC6F8564FD19C063E0CE01CA
:100F20007EDD0BE416E4C8010197F1F763E0CE0122
:100F300076DDC8010197F1F763E0CE0170DD83E54E
:100F400092E00197F1F762E0CE0169DD13C06062C3
:100F5000CE01E2DD8BE496E40197F1F76F856062E4
:100F6000CE01DADD83E592E00197F1F76F856062EB
:100F7000CE01D2DD6F856062CE01CEDD84E0888B4C
:100F80006CE0CE01C9DDCE01C9DD82E0898B66E06F
:100F9000CE01DF91CF911F910F91FF90EF90BCCDCB
:100FA000643008F063E09091A005691710F06FEFCE
:100FB000690FE62FF0E0E357FA4F9489682F690F25
:100FC00060688DE895E0A8CDCF93DF93482F50E07F
:100FD00060E070E02AE080EF94E075DBEC016AE706
:100FE00074E080EF94E05ADB8C0F9D1FDF91CF916E
:100FF0000895CF93DF93BC0180EF94E04FDBEC01C9
:101000006AE774E080EF94E049DB8C0F9D1FDF916D
:10101000CF9108958091EE049091EF04892B21F0F7
:1010200081E08093ED04089580E1EDEDF4E0ADEC16
:10103000B4E001900D928A95E1F71092CC048DEC0A
:1010400094E0FEDD8093CB0481E090E09093EF0488
:101050008093EE041092ED041092CA041092C90419
:101060008AEA8093C8048093D60008956F927F9295
:101070008F929F92AF92BF92CF92DF92EF92FF92A8
:101080000F931F93CF93DF9381E08093110671DC60
:10109000009101061091020620910306309104068A
:1010A000AB01BC01401B510B620B730B80910D0611
:1010B00090910E06A0E0B0E084179507A607B70749
:1010C00008F003C1C0E080910B06C81758F4E09106
:1010D0000706F0910806EC0FF11D62E080810ADC42
:1010E000CF5FF1CF712C812C912C5401839480918E
:1010F0000C06781608F05AC0072D10E0E09109069A
:10110000F0910A06E00FF11F61E08081F3DBE091CE
:101110000906F0910A06E00FF11F60E08081A5DB6F
:10112000D501C401072C04C0880F991FAA1FBB1F3B
:101130000A94D2F76C017C01E094F094612C8091C8
:101140000B066816F0F4C62DD0E0E0910706F0918A
:101150000806EC0FFD1F80815EDB2496CC0FDD1F9F
:10116000CB55DA4F892B29F4888199818C299D29C7
:1011700004C0888199818E219F21998388836394FB
:10118000DECFE0910906F0910A06E00FF11F61E061
:1011900080816BDB8091090690910A06FC01E00FCB
:1011A000F11F60E08081A6DB7394A1CFE1ECF5E054
:1011B0008FEF9FEF23813481232B21F410829283C0
:1011C00081831582369625E0ED3FF20799F710E00E
:1011D00096E0F92E80910B06181708F051C000E038
:1011E000C12FD0E0CC0FDD1FC355DA4F20910C0684
:1011F000021708F043C068817981002E02C07695FD
:1012000067950A94E2F761707727129F9001112485
:10121000200F311DE0910506F0910606E20FF31F45
:101220004081E5EAF5E080E0A58DB68DA217B30711
:1012300011F461701AC08F5F36968A30A9F7672B58
:10124000D9F0E1ECF5E080E090E0508151110FC061
:10125000F89EF001F99EF00D1124EB55FA4F448FE2
:10126000368F258F10A2178E61E0B4DD05C0019680
:1012700036968A30910549F70F5FB8CF1F5FAACF26
:1012800080E090E0C0E0FC01EB55FA4F21A1211174
:10129000C1E006968C339105B1F76BDB60930106D4
:1012A000709302068093030690930406CC2369F0A2
:1012B0008091C605882349F08091C4059091C505A9
:1012C000019719F48091C10503C01092110680E0C6
:1012D000DF91CF911F910F91FF90EF90DF90CF9012
:1012E000BF90AF909F908F907F906F900895E09106
:1012F0008D05F0918E050190F081E02D682F8DE82D
:1013000095E01994CF93DF93CDB7DEB764970FB60E
:10131000F894DEBF0FBECDBF789484B5826084BDE3
:1013200084B5816084BD85B5826085BD85B58160E9
:1013300085BD80916E00816080936E001092810067
:101340008091810082608093810080918100816022
:1013500080938100809180008160809380008091E3
:10136000B10084608093B1008091B000816080936F
:10137000B0008091910082608093910080919100F3
:1013800081608093910080919000816080939000B3
:101390008091A10082608093A1008091A100816072
:1013A0008093A1008091A00081608093A000809133
:1013B00021018260809321018091210181608093CD
:1013C00021018091200181608093200180917A0029
:1013D000846080937A0080917A00826080937A00A2
:1013E00080917A00816080937A0080917A00806891
:1013F00080937A001092C10081E090E017D580932D
:10140000BA0461E086E176DA61E086E12EDA62E034
:101410008DE895E039DDE0910005F091010582E06D
:101420008083E091FC04F091FD041082E091FE04C1
:10143000F091FF048FEC808310920805E091040581
:10144000F091050516E01083E0910205F091030587
:10145000808180618083E0910205F09103058081A5
:1014600088608083E0910205F091030580818068A7
:101470008083E0910205F091030580818F7D808358
:1014800068E472E080EF94E066D91092EF04109265
:10149000EE041092A7041092A9041092A8041092CE
:1014A000CC041092CB041092ED041092D50087E684
:1014B0008093D40088E18093D1001093D200809172
:1014C000D6008091D00087FDFACF80EC8093D000C9
:1014D0008091D100806C8093D1001092A1008FE7A1
:1014E00091EC9093A5008093A4001092A00081E05D
:1014F0008093A1001092A2008093720060E08CE0C3
:101500004FDD6DE472E08DE895E025D960E08FE075
:1015100047DD4091BA0450E060E070E02AE08DE8D9
:1015200095E0D1D860E080E03BDD61E572E08DE8D8
:1015300095E011D960ED77E080E090E054D88DE837
:1015400095E0ECDA60E080E02BDD68E572E08DE8A4
:1015500095E001D960ED77E080E090E044D887E045
:10156000C82ED12CAA24AA94BA2C24E6822E912C1F
:1015700033E6E32EF12C0AE210E046E0642E712CF3
:1015800080910602909107028630910509F455C1B9
:101590009CF48230910509F4C9C034F40097A9F194
:1015A000019709F44AC07FC38330910509F4D9C07B
:1015B000049709F40DC177C38336910509F4B7C1C7
:1015C000DCF48730910509F45AC18A9709F06BC39E
:1015D0008DE895E0A3DA60E080E0E2DC6AE573E0A4
:1015E0008DE895E0B8D861E080E0DADC61E773E08F
:1015F0008DE895E0B0D879C18436910509F43DC2F3
:101600008536910509F4C3C24EC3B3D9DC01CB01C1
:101610008059984EAF4FBF4F8093C4049093C50438
:10162000A093C604B093C7048FEF80930502809304
:101630000402B0920302A09202028091C20490912F
:10164000C304892B81F460E080E0AADC6FE572E0DE
:101650008DE895E080D861E080E0A2DC64E772E08C
:101660008DE895E078D88091C2049091C3040197E9
:1016700081F460E080E094DC66E872E08DE895E05B
:101680006AD861E080E08CDC6BE972E08DE895E07F
:1016900062D88091C2049091C304029781F460E003
:1016A00080E07EDC60EB72E08DE895E054D861E08C
:1016B00080E076DC67EC72E08DE895E04CD8D6DC13
:1016C00080930102813429F470920702609206022D
:1016D00008C0823451F482E090E090930702809336
:1016E00006021092C3041092C2042090C4043090E9
:1016F000C5044090C6045090C7043BD9261637064F
:101700004806590608F0CFC28091C2049091C304E4
:1017100001968330910529F09093C3048093C2040D
:1017200063C21092C3041092C2045EC28DE895E0B9
:10173000F5D96CED72E08DE895E00DD860E08DE0B4
:101740002FDC94DC582E8093050260E08DE028DCCD
:10175000852DCDDD83E090E0909307028093060213
:10176000A2C26FEE72E08DE895E00E94AB037EDCD2
:10177000582E8093040260E08EE012DC852DB7DDE8
:1017800084E090E090930702809306022091050286
:10179000022E000C330B3093C1042093C0048091BF
:1017A0000402082E000C990B9093BF048093BE0492
:1017B000205331096AE0629FA001639F500D1124FC
:1017C000C097840F951F90930302809302026BC20F
:1017D00061E080E0E5DB62E073E08DE895E00E9487
:1017E000AB0344DC833209F05EC28DE895E096D904
:1017F0004091020250910302052E000C660B770BFC
:1018000077FF11C08DE2498B5A8B6B8B7C8B6FDD20
:1018100049895A896B897C89709560955095419565
:101820005F4F6F4F7F4F2AE08DE895E00E94630382
:10183000D0920702C092060236C28DE895E06ED9BA
:1018400069E173E08DE895E00E94AB0361E080E020
:10185000A7DB6FE273E08DE895E00E94AB0306DC46
:10186000833209F020C28DE895E058D9D092070262
:10187000C0920602B0920302A092020214C28DE846
:1018800095E04CD960E080E08BDB65E473E08DE8A7
:1018900095E00E94AB031092BD041092BC048091AD
:1018A000BC049091BD048A309105D4F401969093C4
:1018B000BD048093BC0460E086E10E94350468ECBE
:1018C00070E080E090E00E94F30261E086E10E9417
:1018D000350468EC70E080E090E00E94F302DFCF16
:1018E000F0920702E0920602DEC18091BC04909162
:1018F000BD04843191050CF077C101969093BD042D
:101900008093BC0460E08DE00E94350464E670E0E2
:1019100080E090E00E94F30261E08DE00E943504D7
:1019200064E670E080E090E00E94F302DECF21D810
:10193000DC01CB018053984FAF4FBF4F8093C4045D
:101940009093C504A093C604B093C7041092BB043F
:1019500080910202909103022091BA048F3F3FEFE1
:10196000930781F584E08093DD042093DE041092D8
:10197000DF041092E0048AE893E03BDB8091EE0400
:101980009091EF04892BD1F78AE993E032DB42DBB7
:101990008091EE049091EF04892BD1F79091ED04A2
:1019A00081E0911101C080E08093BB0486EA93E05E
:1019B00020DB8091BB04882309F475C187EB93E099
:1019C00018DB6DC133E03093DD042093DE04109208
:1019D000DF048093E0048AE893E00BDB8091EE045F
:1019E0009091EF04892BD1F78AE993E002DB12DBB7
:1019F0008091EE049091EF04892BD1F79091ED0442
:101A000081E0911101C080E08093BB0486EA93E0FD
:101A1000F0DA8091BB04882339F087EB93E0E9DAB0
:101A200010930702009306020E94B9042090C40498
:101A30003090C5044090C6045090C704261637065F
:101A40004806590620F48091BB0481112FC10E94E1
:101A5000B9042091BB04621573058405950530F423
:101A6000222331F0F0920702E092060221111BC1FD
:101A7000909207028092060216C10E94B904DC010E
:101A8000CB018057904AAE4FBF4F8093C4049093D0
:101A9000C504A093C604B093C70481E080930002FC
:101AA00068EC70E080E090E00E94F3029091A9045D
:101AB0008091A804981709F455C0CE0101960E94A0
:101AC0002F0363EC73E080EF94E00E94AB03CE0140
:101AD00001968FDA8981853009F044C09B8180911D
:101AE000BA0498133FC01092000285E06DDA8A8133
:101AF0006BDA8B8169DA8C8167DA60E080E050DA3A
:101B00006DEC73E08DE895E00E94AB0361E080E04E
:101B100047DA65EE73E08DE895E00E94AB0361E083
:101B20008BE03EDA4C8150E060E070E02AE08DE826
:101B300095E00E94630385E690E09093070280930E
:101B400006020E94B904DC01CB018057904AAE4FD7
:101B5000BF4F8093C4049093C504A093C604B09370
:101B6000C704A1C00E94B9042091C4043091C504E7
:101B70004091C6045091C704621773078407950704
:101B800008F091C080910002811189C08CC081E071
:101B9000809300029091A9048091A804981709F4F9
:101BA0006FC08AEA94E00E942F0363EC73E080EF39
:101BB00094E00E94AB038AEA94E01BDA8091AA04C5
:101BC0008630B9F060E080E0EBD96DEF73E08DE82E
:101BD00095E00E94AB0361E080E0E2D969E174E046
:101BE0008DE895E00E94AB03109207021092060266
:101BF0005AC09091AC048091BA049813E3CF10922C
:101C0000000286E0E1D98091AB04DED98091AC047A
:101C1000DBD98091AD04D8D960E080E0C1D962E31E
:101C200074E08DE895E00E94AB0361E080E0B8D9F4
:101C300062E574E08DE895E00E94AB038091BC04FE
:101C40009091BD04843191050CF0BCCF0196909326
:101C5000BD048093BC0460E086E10E94350468EE18
:101C600073E080E090E00E94F30261E086E10E9470
:101C7000350468EE73E080E090E00E94F302DECF6E
:101C80000E94B9042091C4043091C5044091C60457
:101C90005091C704621773078407950720F41093C7
:101CA0000702009306020E9440026ACC10930702CA
:101CB00000930602CCCE1092F3041092F20488EE48
:101CC00093E0A0E0B0E08093F4049093F504A09337
:101CD000F604B093F70484E292E09093F1048093C9
:101CE000F00485EC90E09093FD048093FC0484EC78
:101CF00090E09093FF048093FE0480EC90E090933A
:101D000001058093000581EC90E09093030580939A
:101D1000020582EC90E0909305058093040586EC23
:101D200090E09093070580930605109209051092A4
:101D30000A0510920B0510920C051092A70510923F
:101D4000AB051092AA051092AC0582E492E0909344
:101D5000A6058093A50580E090E0FC01EB55FA4FC5
:101D6000148E10A2178E11A206968C339105A9F736
:101D70008CE092E0909308068093070688E092E05A
:101D800090930A068093090684E080930B06809363
:101D90000C0680E192E090930606809305068AE0A7
:101DA00090E090930E0680930D0684EF91E090935F
:101DB000100680930F0610921306109212061092CE
:101DC0000106109202061092030610920406109269
:101DD00011061092900510928F0586E392E0909381
:101DE0008E0580938D0586E2809391058FEF809319
:101DF000920584E28093930584E38093940582E3C3
:101E00008093950580E3809396058EE280939705F5
:101E1000109298051092990510929A0510929B05C0
:101E200010929C0561E08DE895E02EC8F999FECFEF
:101E300092BD81BDF89A992780B50895A1E21A2E26
:101E4000AA1BBB1BFD010DC0AA1FBB1FEE1FFF1F5E
:101E5000A217B307E407F50720F0A21BB30BE40BAE
:101E6000F50B661F771F881F991F1A9469F76095F5
:101E70007095809590959B01AC01BD01CF010895AF
:101E8000EE0FFF1F881F8BBF0790F691E02D19946E
:0C1E900081E090E0F89400C0F894FFCFCF
:101E9C00015AFFFFFFFF0100201E1C1A211F1D1BF2
:101EAC003132334134353642373839432A302344C2
:101EBC0000000000D901470172011F02A30181013A
:101ECC00950100000000870547012C032B0300003F
:101EDC000000B60477043304696E69740049443D0C
:101EEC000048454C4C4F2100464F4D502121004895
:101EFC004F5720746F2053454E4420202020202023
:101F0C002020200050524553533A202020202020DE
:101F1C002020202020004120464F52204441544193
:101F2C004D415452495820202020004220464F5207
:101F3C00204144445245535320202020202020008F
:101F4C00464F522048454C50205649534954202066
:101F5C002020202020200073696C6B726F61642E2E
:101F6C00782D72612E646520202020004445535446
:101F7C00494E4154494F4E3A2023232020200044FF
:101F8C00455354494E4154494F4E3A20202320206A
:101F9C002000202320544F20434F4E4649524D20C1
:101FAC00202020202020202000434F4445204F4E4D
:101FBC002043415053554C453F20202020200020E9
:101FCC002320544F20434F4E4649524D2020202071
:101FDC002020202000444F204E4F5420494E534582
:101FEC00525420202020202020004552524F5220B5
:101FFC0054494D454F55542020202020202020208E
:10200C000043414C4C2053494C4B20202020202095
:10201C002020202020202020200057616974696E28
:10202C006720746F2073656E640053656E64696E0F
:10203C0067202E2E2E0046696E69736865642053E6
:10204C00656E64696E670053656E64206661696CC9
:10205C00656400476F7420646174613A00574F5295
:10206C004B494E4720464F5220594F552020202097
:10207C002020202000504C454153452057414954C5
:10208C0020202020202020202020202000544841E7
:10209C004E4B5320464F52205553494E472020203B
:1020AC0020202020202020200053454944454E5319
:1020BC005452415353452020202020202020202002
:1020CC002000494E534552542043415053554C45E2
:1020DC0020212121202020202020202020202020F1
:1020EC00200020574520574F524B20464F52205925
:1020FC004F55202020202020202020202020202070
:0E210C00202020202020202020000D0A00008E
:020000023000CC
:10E000000D9489F10D94B2F10D94B2F10D94B2F129
:10E010000D94B2F10D94B2F10D94B2F10D94B2F1F0
:10E020000D94B2F10D94B2F10D94B2F10D94B2F1E0
:10E030000D94B2F10D94B2F10D94B2F10D94B2F1D0
:10E040000D94B2F10D94B2F10D94B2F10D94B2F1C0
:10E050000D94B2F10D94B2F10D94B2F10D94B2F1B0
:10E060000D94B2F10D94B2F10D94B2F10D94B2F1A0
:10E070000D94B2F10D94B2F10D94B2F10D94B2F190
:10E080000D94B2F10D94B2F10D94B2F10D94B2F180
:10E090000D94B2F10D94B2F10D94B2F10D94B2F170
:10E0A0000D94B2F10D94B2F10D94B2F10D94B2F160
:10E0B0000D94B2F10D94B2F10D94B2F10D94B2F150
:10E0C0000D94B2F10D94B2F10D94B2F10D94B2F140
:10E0D0000D94B2F10D94B2F10D94B2F10D94B2F130
:10E0E0000D94B2F141546D656761323536300041AF
:10E0F000726475696E6F206578706C6F72657220DE
:10E1000073746B3530305632206279204D4C530099
:10E11000426F6F746C6F616465723E004875683F52
:10E1200000436F6D70696C6564206F6E203D200048
:10E130004350552054797065202020203D20005FF9
:10E140005F4156525F415243485F5F3D2000415658
:10E1500052204C696243205665723D20004743437C
:10E160002056657273696F6E203D20004350552024
:10E1700049442020202020203D20004C6F7720663D
:10E18000757365202020203D20004869676820665F
:10E190007573652020203D200045787420667573D6
:10E1A00065202020203D20004C6F636B2066757336
:10E1B000652020203D20004D617220203720323024
:10E1C000313300312E362E3800342E332E350056A2
:10E1D00023202020414444522020206F7020636F70
:10E1E00064652020202020696E73747275637469E1
:10E1F0006F6E2061646472202020496E74657272B3
:10E20000757074006E6F20766563746F7200726A49
:10E210006D702020006A6D70200057686174207056
:10E220006F72743A00506F7274206E6F7420737541
:10E2300070706F72746564004D7573742062652030
:10E2400061206C6574746572002000577269747483
:10E25000696E672045450052656164696E672045B7
:10E26000450045452065727220636E743D00504F35
:10E27000525400303D5A65726F2061646472003FF1
:10E280003D43505520737461747300403D454550C3
:10E29000524F4D207465737400423D426C696E6B41
:10E2A000204C454400453D44756D70204545505215
:10E2B0004F4D00463D44756D7020464C415348001B
:10E2C000483D48656C70004C3D4C69737420492F83
:10E2D0004F20506F72747300513D51756974005234
:10E2E0003D44756D702052414D00563D73686F7707
:10E2F00020696E7465727275707420566563746FF0
:10E30000727300593D506F727420626C696E6B00BD
:10E310002A0011241FBECFEFD1E2DEBFCDBF01E046
:10E320000CBF12E0A0E0B2E0EEE1FDEF03E00BBFB6
:10E3300002C007900D92A030B107D9F712E0A0E01B
:10E34000B2E001C01D92AE30B107E1F70F9460F367
:10E350000D948DFE01E20EBF0FEF0DBF11241FBE05
:10E360000D9460F30D9400F020E030E040ED57E0B4
:10E3700005C0FA013197F1F72F5F3F4F2817390792
:10E38000C0F308959C01260F311DC901A0E0B0E043
:10E390002F5F3F4FABBFFC018791882361F08093D3
:10E3A000C6008091C00086FFFCCF8091C0008064D1
:10E3B0008093C000EACF08958DE08093C6008091DD
:10E3C000C00086FFFCCF8091C00080648093C000B5
:10E3D0008AE08093C6008091C00086FFFCCF8091C8
:10E3E000C00080648093C00008950F94C2F10F9420
:10E3F000DCF10895FC019081992359F09093C600B7
:10E400008091C00086FFFCCF8091C0008064809323
:10E41000C0003196992379F70895282F982F929567
:10E420009F70892F805D8A3308F0895F8093C600D2
:10E430008091C00086FFFCCF8091C00080648093F3
:10E44000C000822F8F70982F905D9A3308F0995FEB
:10E450009093C6008091C00086FFFCCF8091C000E1
:10E4600080648093C00008959C01FB01853691056E
:10E470001CF46330710594F0C90164E670E00F94F8
:10E480002EFE605D7F4F6093C6008091C00086FFC6
:10E49000FCCF8091C00080648093C0002B30310598
:10E4A00014F43297B4F0C90164E670E00F942EFEC4
:10E4B0006AE070E00F942EFE605D7F4F6093C600AF
:10E4C0008091C00086FFFCCF8091C0008064809363
:10E4D000C000C9016AE070E00F942EFEC0968093E0
:10E4E000C6008091C00086FFFCCF8091C000806490
:10E4F0008093C00008951F93182F8EE692EE60E07F
:10E500000F94C2F11093C6008091C00086FFFCCF2B
:10E510008091C00080648093C0000F94DCF11F9153
:10E5200008952F923F924F925F926F927F928F92B7
:10E530009F92AF92BF92CF92DF92EF92FF920F9392
:10E540001F93DF93CF93CDB7DEB762970FB6F894E2
:10E55000DEBF0FBECDBF382E622ECA01DB015C01CB
:10E560006D01772420E2222E2E010894411C511CBB
:10E570008BC081E0A81680E0B80681E0C80680E084
:10E58000D80628F0C601AA27BB270F940DF2BB2797
:10E59000AD2D9C2D8B2D0F940DF28A2D0F940DF225
:10E5A0002092C6008091C00086FFFCCF8091C00001
:10E5B00080648093C0009DE29093C6008091C0006B
:10E5C00086FFFCCF8091C00080648093C0002092C1
:10E5D000C6008091C00086FFFCCF8091C00080649F
:10E5E0008093C00019828601750188249924A1E0D6
:10E5F0003A1651F03A1620F0B2E03B1661F409C029
:10E600000BBFF701779007C0C7010F9477FE782EF4
:10E6100002C0F7017080872D0F940DF22092C60082
:10E620008091C00086FFFCCF8091C0008064809301
:10E63000C000872D8052F401EF70F0708F3520F408
:10E64000E40DF51D708204C0E40DF51D8EE280839B
:10E650000894E11CF11C011D111D0894811C911CE2
:10E6600090E18916910409F0C2CF80E190E0A0E02A
:10E67000B0E0A80EB91ECA1EDB1E198AC2010F9493
:10E68000FAF10F94DCF16A94662009F072CF629679
:10E690000FB6F894DEBF0FBECDBFCF91DF911F91B3
:10E6A0000F91FF90EF90DF90CF90BF90AF909F9031
:10E6B0008F907F906F905F904F903F902F90089534
:10E6C0002F923F924F925F926F927F928F929F9282
:10E6D000AF92BF92CF92DF92EF92FF920F931F9370
:10E6E000DF93CF93CDB7DEB7CD53D1400FB6F894BB
:10E6F000DEBF0FBECDBF01E20EBF0FEF0DBF94B75F
:10E70000F894A89514BE80916000886180936000A1
:10E7100010926000789493FF05C0E0910002F091A0
:10E7200001021995279A2F9A8091C00082608093E8
:10E73000C00080E18093C40088E18093C1000000A4
:10E74000EE24FF24870144E0A42EB12CCC24DD2448
:10E7500024C0C5010197F1F70894E11CF11C011DCB
:10E76000111D21E2E2162EE4F20620E0020720E06D
:10E77000120718F031E0C32ED12CC801B70127ECE5
:10E780003BE140E050E00F9441FE611571058105C9
:10E79000910519F485B1805885B98091C00087FD35
:10E7A00003C0C114D104A9F2A6014F5F5F4FC25E3E
:10E7B000DE4F59834883CE51D140C25EDE4F8881FF
:10E7C0009981CE51D140019711F00D9410FEC05D9A
:10E7D000DE4F19821882C053D14060E0C15DDE4F28
:10E7E0001882CF52D14088249924C35DDE4F19820C
:10E7F0001882CD52D140C05EDE4F188219821A8233
:10E800001B82C052D140CE5CDE4F188219821A8220
:10E810001B82C253D140EE24FF2487010BBFF701B6
:10E8200007911691C45CDE4F19830883CC53D14005
:10E830000D940BFEC25EDE4F28813981CE51D1404E
:10E840002130310509F52091C600C25EDE4F1982E4
:10E850001882CE51D14022C02F5F3F4F4F4F5F4FA4
:10E86000213082E138078AE7480780E0580780F0C6
:10E87000C45CDE4FE881F981CC53D140EF5FFF4F9C
:10E8800019F0EE27FF27099420E030E040E050E047
:10E890008091C00087FFE0CF2091C600C35DDE4FAE
:10E8A00048815981CD52D1404F5F5F4FC35DDE4FEC
:10E8B00059834883CD52D140213209F063C64A3092
:10E8C000510508F05FC60894811C911C53E0851621
:10E8D000910409F059C600E010E018C081E280936D
:10E8E000C6008091C00086FFFCCF8091C00080648C
:10E8F0008093C0002F5F3F4F2931310579F70F9486
:10E90000DCF10F5F1F4F0530110519F020E030E0FA
:10E91000E5CF10920A0210920B0210920C02109294
:10E920000D02109206021092070210920802109235
:10E930000902109202021092030210920402109235
:10E9400005028FEE90EE60E00F94F5F180E191EE1C
:10E9500060E00F94C2F18091C00087FFFCCF9091DE
:10E96000C600903608F09F759032B8F09093C600BC
:10E970008091C00086FFFCCF8091C00080648093AE
:10E98000C000A0E2A093C6008091C00086FFFCCF2B
:10E990008091C00080648093C000983409F4D7C18E
:10E9A0009934B8F4923409F459C1933458F490333B
:10E9B00019F1903308F4E3C59F33A1F1903409F0C5
:10E9C000DEC5BDC0953409F470C1963409F0D7C5D1
:10E9D00098C1923509F42BC2933538F49C3409F46C
:10E9E000F5C1913509F0CBC518C2963509F445C279
:10E9F000993509F0C4C567C483E792EE62E00F94CD
:10EA0000F5F110920602109207021092080210927D
:10EA1000090210920A0210920B0210920C0210923C
:10EA20000D0213C18FE792EE62E00F94F5F18FEEC5
:10EA300090EE60E00F94F5F181E291EE60E00F94CA
:10EA4000C2F187EB91EE60E00F94F5F180E391EE77
:10EA500060E00F94C2F184EE90EE60E00F94F5F167
:10EA60008FE391EE60E00F94C2F186E090E061E008
:10EA700070E00F9434F20F94DCF18DE591EE60E0DC
:10EA80000F94C2F189EC91EE60E00F94F5F18EE401
:10EA900091EE60E00F94C2F183EC91EE60E00F9490
:10EAA000F5F18CE691EE60E00F94C2F18EE10F94E7
:10EAB0000DF288E90F940DF281E00F940DF20F949E
:10EAC000DCF18BE791EE60E00F94C2F119E0E0E039
:10EAD000F0E010935700E4918E2F0F940DF20F94F5
:10EAE000DCF18AE891EE60E00F94C2F1E3E0F0E03F
:10EAF00010935700E4918E2F0F940DF20F94DCF1D8
:10EB000089E991EE60E00F94C2F1E2E0F0E0109349
:10EB10005700E4918E2F0F940DF20F94DCF188EAE8
:10EB200091EE60E00F94C2F1E1E0F0E01093570045
:10EB30001491812F0F940DF20F94DCF107CF8BE825
:10EB400092EE62E00F94F5F18BE492EE60E00F94A8
:10EB5000F5F10F94DCF100E010E019C0C8016F2D51
:10EB60000F947FFEFF2031F489E492EE60E00F9471
:10EB7000C2F10BC0F092C6008091C00086FFFCCFAE
:10EB80008091C00080648093C0000F5F1F4FC80158
:10EB900081519F41A0E0B0E0ABBFFC01F790BAE229
:10EBA000FB1621F0E2E000301E07C1F60F94DCF105
:10EBB0000F94DCF187E592EE60E00F94F5F10F948D
:10EBC000DCF1CC24DD2400E010E01EC0C8010F946D
:10EBD00077FEF82E882331F489E492EE60E00F94FA
:10EBE000C2F10BC08093C6008091C00086FFFCCFAD
:10EBF0008091C00080648093C000FE1419F00894D6
:10EC0000C11CD11C0F5F1F4FC80181519F41A0E063
:10EC1000B0E0ABBFFC01E790FAE2EF1621F022E092
:10EC20000030120799F60F94DCF10F94DCF182E6C4
:10EC300092EE60E00F94C2F1C60161E070E00F94C3
:10EC400034F20F94DCF10F94DCF110920202109276
:10EC50000302109204021092050278CE89E992EE26
:10EC600062E00F94F5F1279A2F9A16C02F9880E052
:10EC700090E0E0EDF7E03197F1F7019684369105E9
:10EC8000C1F72F9A80E090E0E0EDF7E03197F1F7DF
:10EC9000019684369105C1F78091C00087FFE6CFC9
:10ECA0008091C00087FFFCCF64C485EA92EE62E0E9
:10ECB0000F94F5F140910202509103026091040219
:10ECC0007091050281E020E10F9491F2809102029F
:10ECD00090910302A0910402B091050280509F4FD1
:10ECE000AF4FBF4F8093020290930302A0930402A0
:10ECF000B093050280509041A040B04008F426CE69
:10ED0000A4CF83EB92EE62E00F94F5F140910602FE
:10ED100050910702609108027091090280E020E1A1
:10ED20000F9491F28091060290910702A09108023F
:10ED3000B091090280509F4FAF4FBF4F80930602A2
:10ED400090930702A0930802B0930902FFCD80ECD4
:10ED500092EE62E00F94F5F183E792EE60E00F949B
:10ED6000F5F18FE792EE60E00F94F5F18BE892EE0B
:10ED700060E00F94F5F189E992EE60E00F94F5F10F
:10ED800085EA92EE60E00F94F5F183EB92EE60E09D
:10ED90000F94F5F180EC92EE60E00F94F5F187ECC2
:10EDA00092EE60E00F94F5F188ED92EE60E00F9442
:10EDB000F5F18FED92EE60E00F94F5F18AEE92EEB0
:10EDC00060E00F94F5F183E093EEBDCD87EC92EE19
:10EDD00062E00F94F5F181E40F947BF282E40F94EA
:10EDE0007BF283E40F947BF284E40F947BF285E45E
:10EDF0000F947BF286E40F947BF287E40F947BF20E
:10EE000088E40F947BF28AE40F947BF28BE40F94F6
:10EE10007BF28CE40F947BF299CD88ED92EE62E068
:10EE20000F94F5F1772473948824992409C48FED05
:10EE300092EE62E00F94F5F140910A0250910B02BC
:10EE400060910C0270910D0282E020E10F9491F22A
:10EE500080910A0290910B02A0910C02B0910D02D8
:10EE600080509F4FAF4FBF4F80930A0290930B0289
:10EE7000A0930C02B0930D0269CD8AEE92EE62E08F
:10EE80000F94F5F184EE90EE60E00F94F5F18FECC5
:10EE900091EE60E00F94F5F1662477244301CC5D98
:10EEA000DE4F19821882C452D140D401C301B695F5
:10EEB000A79597958795CA5DDE4F88839983AA8326
:10EEC000BB83C652D140CC5DDE4FA881B981C4520C
:10EED000D1401196CC5DDE4FB983A883C452D14096
:10EEE000CD0162E070E00F9434F2B0E2B093C6005E
:10EEF0008091C00086FFFCCF8091C0008064809329
:10EF0000C000EDE2E093C6008091C00086FFFCCF18
:10EF10008091C00080648093C000F0E2F093C6004E
:10EF20008091C00086FFFCCF8091C00080648093F8
:10EF3000C000CA5DDE4FE880F9800A811B81C6529D
:10EF4000D140BB27A12F902F8F2D0F940DF2CA5DBA
:10EF5000DE4F8881C652D1400F940DF2B0E2FB2EF5
:10EF6000F092C6008091C00086FFFCCF8091C00067
:10EF700080648093C0000DE30093C6008091C000C0
:10EF800086FFFCCF8091C00080648093C00010E2B7
:10EF90001093C6008091C00086FFFCCF8091C00016
:10EFA00080648093C0008BBEF3012791C65DDE4F65
:10EFB0002883CA52D140A22EBB24CC24DD2408943D
:10EFC000611C711C811C911C8BBEF3018791282E42
:10EFD0003324442455240894611C711C811C911C09
:10EFE0008BBEF3013791C55DDE4F3883CB52D140E4
:10EFF0000894611C711C811C911C8BBEF30147910C
:10F00000C45DDE4F4883CC52D140ADEFEA2EAFEF66
:10F01000FA2EAFEF0A2FAFEF1A2F6E0C7F1C801E57
:10F02000911E142D032DF22CEE24EA0CFB1C0C1D5A
:10F030001D1D0F940DF220E22093C6008091C000A8
:10F0400086FFFCCF8091C00080648093C000C65DC5
:10F05000DE4F8881CA52D1400F940DF230E23093D6
:10F06000C6008091C00086FFFCCF8091C000806404
:10F070008093C000C45DDE4F8881CC52D1400F9494
:10F080000DF240E24093C6008091C00086FFFCCFA5
:10F090008091C00080648093C000C55DDE4F888190
:10F0A000CB52D1400F940DF250E25093C6008091A4
:10F0B000C00086FFFCCF8091C00080648093C000B8
:10F0C0008FEFE8168FEFF80680E0080780E018075A
:10F0D00031F484E092EE60E00F94C2F1DFC0D80119
:10F0E000C7018070907CA070B0708050904CA040A0
:10F0F000B040D1F52FEF3FE340E050E0E222F322B1
:10F1000004231523CA5DDE4FA880B980CA80DB8046
:10F11000C652D140AE0CBF1CC01ED11EAA0CBB1CD7
:10F12000CC1CDD1C8EE092EE60E00F94C2F1BB2798
:10F13000A12F902F8F2D0F940DF28E2D0F940DF285
:10F1400030E23093C6008091C00086FFFCCF8091F2
:10F15000C00080648093C0004EE34093C60080915D
:10F16000C00086FFFCCF87C08EE09EEFA0E0B0E03D
:10F17000E822F9220A231B239CE0E91694E9F90608
:10F1800090E0090790E0190709F088C0C45DDE4FE0
:10F19000A881CC52D140EA2EFF2400E010E0102FCD
:10F1A0000F2DFE2CEE24C55DDE4FB881CB52D14031
:10F1B000EB0EF11C011D111DD601C501817090706F
:10F1C000A070B070DC0199278827E80EF91E0A1F8D
:10F1D0001B1F20EF30E040E050E0A222B322C42207
:10F1E000D52241E1AA0CBB1CCC1CDD1C4A95D1F7F1
:10F1F000EA0CFB1C0C1D1D1D81E090E0A0E0B0E0BE
:10F20000282239224A225B2235E1220C331C441C7D
:10F21000551C3A95D1F7E20CF31C041D151D57013E
:10F220006801AA0CBB1CCC1CDD1C85E192EE60E0E1
:10F230000F94C2F1C801AA27BB270F940DF2BB2778
:10F24000A12F902F8F2D0F940DF28E2D0F940DF274
:10F2500090E29093C6008091C00086FFFCCF809121
:10F26000C00080648093C000AEE3A093C60080918C
:10F27000C00086FFFCCF8091C00080648093C000F6
:10F28000C601AA27BB270F940DF2BB27AD2D9C2DDD
:10F290008B2D0F940DF28A2D0F940DF20F94DCF14B
:10F2A000CC5DDE4FE881F981C452D140F99709F471
:10F2B0004DCBF4E0EF2EF12C012D112D6E0C7F1CA7
:10F2C000801E911EF2CD83E093EE62E00F94F5F183
:10F2D0008AE192EE60E00F94C2F18091C00087FF56
:10F2E000FCCF1091C6001F751093C6008091C0001E
:10F2F00086FFFCCF8091C00080648093C0000F9493
:10F30000DCF1812F81548A3108F036C1163409F4BA
:10F3100095C0173490F4133409F44EC0143430F40B
:10F320001134F1F0123409F01DC130C0143409F465
:10F3300059C0153409F016C16BC01A3409F4C4C0A1
:10F340001B3438F4173409F48FC0183409F00AC19B
:10F35000A1C01B3409F4D2C01C3409F003C1E8C0B9
:10F360008FEF81B90DC082B1809582B980E090E0C5
:10F37000E0EDF7E03197F1F70196883C9105C1F790
:10F380008091C00087FFEFCF12B8EFC08FEF84B934
:10F390000DC085B1809585B980E090E0E0EDF7E0A3
:10F3A0003197F1F70196883C9105C1F78091C00033
:10F3B00087FFEFCF15B8D9C08FEF87B90DC088B1DF
:10F3C000809588B980E090E0E0EDF7E03197F1F7C3
:10F3D0000196883C9105C1F78091C00087FFEFCF6F
:10F3E00018B8C3C08FEF8AB90DC08BB180958BB9A7
:10F3F00080E090E0E0EDF7E03197F1F70196883C8E
:10F400009105C1F78091C00087FFEFCF1BB8ADC059
:10F410008FEF8DB90DC08EB180958EB980E090E0F0
:10F42000E0EDF7E03197F1F70196883C9105C1F7DF
:10F430008091C00087FFEFCF1EB897C08FEF80BBD1
:10F440000DC081B3809581BB80E090E0E0EDF7E0F6
:10F450003197F1F70196883C9105C1F78091C00082
:10F4600087FFEFCF11BA81C08FEF83BB0DC084B38C
:10F47000809584BB80E090E0E0EDF7E03197F1F714
:10F480000196883C9105C1F78091C00087FFEFCFBE
:10F4900014BA6BC08FEF809301010FC080910201FD
:10F4A00080958093020180E090E0E0EDF7E03197F5
:10F4B000F1F70196883C9105C1F78091C00087FF64
:10F4C000EDCF1092020151C08FEF809304010FC065
:10F4D0008091050180958093050180E090E0E0ED4A
:10F4E000F7E03197F1F70196883C9105C1F78091DB
:10F4F000C00087FFEDCF1092050137C08FEF8093DA
:10F5000007010FC08091080180958093080180E079
:10F5100090E0E0EDF7E03197F1F70196883C910536
:10F52000C1F78091C00087FFEDCF109208011DC088
:10F530008FEF80930A010FC080910B01809580931B
:10F540000B0180E090E0E0EDF7E03197F1F70196F4
:10F55000883C9105C1F78091C00087FFEDCF1092E4
:10F560000B0103C085E292EEEEC98091C00087FFD7
:10F57000FCCF8091C600EAC988E392EEE4C98CE131
:10F5800091EEE1C988249924933011F1943028F444
:10F59000913089F09230B8F408C0953061F195301F
:10F5A000F0F0963009F048C043C02B3109F042C951
:10F5B00091E06BE13FC96227C15DDE4F2883CF52E6
:10F5C000D14092E037C9B22FA0E0622793E032C960
:10F5D000822F90E0A82BB92B622794E02BC92E3004
:10F5E00009F039C3622795E0C05DDE4F19821882A9
:10F5F000C053D1401FC9E1E0F0E0EC0FFD1FC05D3A
:10F60000DE4F08811981C053D140E00FF11F2083E4
:10F610000F5F1F4FC05DDE4F19830883C053D14079
:10F6200062270A171B0709F005C9D80196E002C92D
:10F63000261709F010C303C0973009F0FBC87724E0
:10F640009981933109F412C19431C8F4963009F4C8
:10F65000D8C0973050F4923009F406C1933009F4C1
:10F660006DC0913009F059C253C0913109F477C08F
:10F67000923108F0BBC0903109F04FC2F5C098310B
:10F6800009F487C0993150F4953109F4EFC09531F0
:10F6900008F4C6C1963109F040C2C2C19A3109F4DA
:10F6A0006CC09A3108F491C09B3109F45BC09D3164
:10F6B00009F033C29D81903359F48F81882311F46E
:10F6C0009EE11CC0813011F091E018C098E916C08D
:10F6D000892F807591F0903539F4E0E0F0E089E011
:10F6E0008093570094910AC0983539F4E3E0F0E034
:10F6F00089E080935700949101C090E01A821B82A8
:10F700008D818C831D829E831F8227E030E009C299
:10F710001A8288E08B8381E48C8386E58D8382E581
:10F720008E8389E48F8383E5888780E589878FE5E9
:10F730008A8782E38B872BE030E0F3C18A818139AD
:10F7400041F0823941F0803911F48FE005C080E04A
:10F7500003C082E001C08AE01A828B8344C0772410
:10F76000739482C08D81882311F48EE12CC0813086
:10F7700011F081E028C088E926C01A82E1E0F0E0BB
:10F7800089E08093570084918B831C8224E030E0D1
:10F79000C8C18B81803589F48C81883039F4E2E0EE
:10F7A000F0E089E08093570084910DC0E0E0F0E044
:10F7B00089E080935700849106C0E3E0F0E089E09F
:10F7C0008093570084911A82DFCF8D81836C99E0FA
:10F7D000E1E0F0E0082E90935700E89507B600FCB2
:10F7E000FDCF1A821B8223E030E09BC180EC8A832C
:10F7F000CE5CDE4F188219821A821B82C253D1401E
:10F800008EC18A8190E0A0E0B0E0582F44273327D2
:10F8100022278B8190E0A0E0B0E0DC0199278827C7
:10F82000282B392B4A2B5B2B8D8190E0A0E0B0E098
:10F83000282B392B4A2B5B2B8C8190E0A0E0B0E089
:10F84000BA2FA92F982F8827282B392B4A2B5B2BCF
:10F85000220F331F441F551FC05EDE4F288339839C
:10F860004A835B83C052D1401A8259C13A81C95C34
:10F87000DE4F3883C753D140CA5CDE4F1882C6536F
:10F88000D1408B81C82EDD24CA5CDE4F488159816E
:10F89000C653D140C42AD52A933109F082C0CE5C28
:10F8A000DE4F88819981AA81BB81C253D1408050AB
:10F8B000904CA340B04030F583E0CE5CDE4FE88052
:10F8C000F9800A811B81C253D140F70100935B008C
:10F8D00080935700E89507B600FCFDCFCE5CDE4F65
:10F8E000088119812A813B81C253D14000501F4FAA
:10F8F0002F4F3F4FCE5CDE4F088319832A833B8313
:10F90000C253D140C05EDE4F488159816A817B81FC
:10F91000C052D140DE011B9631E08C9111962C91A2
:10F9200011971296C75CDE4F2883C953D140C85C3B
:10F93000DE4F1882C853D14090E0C85CDE4FE881AA
:10F94000F981C853D1408E2B9F2B0C01FA01609393
:10F950005B0030935700E89511244E5F5F4F6F4F67
:10F960007F4F0EEFE02E0FEFF02ECE0CDF1CC114F8
:10F97000D10499F685E0C05EDE4F088119812A81A5
:10F980003B81C052D140F80120935B008093570027
:10F99000E89507B600FCFDCF81E180935700E8951C
:10F9A00035C0C05EDE4F88819981AA81BB81C0527B
:10F9B000D140B695A795979587957C018601ABE0D8
:10F9C000AA2EB12CAC0EBD1E0BC0D5016D915D01F0
:10F9D000C7010F947FFE0894E11CF11C01501040F8
:10F9E0000115110591F7A60160E070E0440F551F65
:10F9F000661F771FC05EDE4FE880F9800A811B8199
:10FA0000C052D1404E0D5F1D601F711F1A82C05E33
:10FA1000DE4F488359836A837B83C052D1407FC0C5
:10FA2000FA80C55CDE4FF882CB53D140C65CDE4F16
:10FA30001882CA53D1408B81C82EDD24C65CDE4FAC
:10FA400008811981CA53D140C02AD12A1A828981DA
:10FA5000BE016D5F7F4F843121F59601C05EDE4FA0
:10FA6000E880F9800A811B81C052D1400BBFF701A9
:10FA700087919691DB018C9311969C936E5F7F4FDB
:10FA8000D801C7010296A11DB11DC05EDE4F88835B
:10FA90009983AA83BB83C052D14022503040F1F6F3
:10FAA00036C0C05EDE4F288139814A815B81C052F9
:10FAB000D1400894C108D108760100E010E0089414
:10FAC000C11CD11C0894E11CF11C011D111DE20E8A
:10FAD000F31E041F151F21BDBB27A52F942F832FB5
:10FAE00082BD2F5F3F4F4F4F5F4FF89A80B5DB01CC
:10FAF0008D93BD012E153F054007510761F7C05E8C
:10FB0000DE4F288339834A835B83C052D1409601FC
:10FB10002D5F3F4FFB01108204C080EC8A8322E0FE
:10FB200030E08BE18093C6008091C00086FFFCCF5F
:10FB30008091C00080648093C000C15DDE4FF88179
:10FB4000CF52D140F093C6008091C00086FFFCCF19
:10FB50008091C00080648093C000432F3093C60022
:10FB60008091C00086FFFCCF8091C00080648093AC
:10FB7000C000922F2093C6008091C00086FFFCCF6A
:10FB80008091C00080648093C0008EE08093C600A6
:10FB90008091C00086FFFCCF8091C000806480937C
:10FBA000C00065E1C15DDE4FE880CF52D1406E25D7
:10FBB00069276427FE01319610C090819093C6009A
:10FBC0008091C00086FFFCCF31968091C000806498
:10FBD0008093C0006927215030402115310569F715
:10FBE0006093C6008091C00086FFFCCF8091C0006A
:10FBF00080648093C00085B1805885B9772081F4F6
:10FC0000C15DDE4F0881CF52D1400F5FC15DDE4F35
:10FC10000883CF52D14090E0A0E0B0E00D941AF4F8
:10FC200027982F9880E090E020ED37E0F901319798
:10FC3000F1F7019684369105C9F700008091C00064
:10FC40008D7F8093C00081E180935700E895EE2777
:10FC5000FF270994FFCF90E00D941AF497FB092E2B
:10FC600007260AD077FD04D02ED006D000201AF443
:10FC7000709561957F4F0895F6F7909581959F4F08
:10FC80000895A1E21A2EAA1BBB1BFD010DC0AA1FDD
:10FC9000BB1FEE1FFF1FA217B307E407F50720F0F5
:10FCA000A21BB30BE40BF50B661F771F881F991F70
:10FCB0001A9469F760957095809590959B01AC01B9
:10FCC000BD01CF010895AA1BBB1B51E107C0AA1FAC
:10FCD000BB1FA617B70710F0A61BB70B881F991FED
:10FCE0005A95A9F780959095BC01CD010895F99991
:10FCF000FECF92BD81BDF89A992780B50895262F31
:10FD0000F999FECF1FBA92BD81BD20BD0FB6F89400
:0EFD1000FA9AF99A0FBE01960895F894FFCF63
:040000033000E000E9
:00000001FF
